20170822-08:56:23.555 : 8=FIXT.1.1|9=98|35=A|34=1|49=DBL|50=SID|52=20170822-08:56:23.552|56=BME|57=TID|98=0|108=30|141=Y|1137=4|1408=T4.0|10=111|
20170822-08:56:23.557 : 8=FIXT.1.1|9=98|35=A|49=BME|56=DBL|52=20170822-08:56:23.556|34=1|50=TID|57=SID|98=0|108=30|141=Y|1137=9|1408=T4.0|10=120|
20170822-08:56:53.113 : 8=FIXT.1.1|9=49|35=0|34=2|49=DBL|52=20170822-08:56:53.109|56=BME|10=217|
20170822-08:56:54.584 : 8=FIXT.1.1|9=63|35=0|49=BME|56=DBL|52=20170822-08:56:54.584|34=2|50=TID|57=SID|10=235|
20170822-08:57:23.332 : 8=FIXT.1.1|9=49|35=0|34=3|49=DBL|52=20170822-08:57:23.331|56=BME|10=213|
20170822-08:57:25.615 : 8=FIXT.1.1|9=63|35=0|49=BME|56=DBL|52=20170822-08:57:25.615|34=3|50=TID|57=SID|10=230|
20170822-08:57:53.356 : 8=FIXT.1.1|9=49|35=0|34=4|49=DBL|52=20170822-08:57:53.352|56=BME|10=220|
20170822-08:57:56.647 : 8=FIXT.1.1|9=63|35=0|49=BME|56=DBL|52=20170822-08:57:56.646|34=4|50=TID|57=SID|10=239|
20170822-08:58:23.516 : 8=FIXT.1.1|9=49|35=0|34=5|49=DBL|52=20170822-08:58:23.515|56=BME|10=220|
20170822-08:58:27.674 : 8=FIXT.1.1|9=63|35=0|49=BME|56=DBL|52=20170822-08:58:27.674|34=5|50=TID|57=SID|10=240|
20170822-08:58:53.140 : 8=FIXT.1.1|9=49|35=0|34=6|49=DBL|52=20170822-08:58:53.137|56=BME|10=224|
20170822-08:58:58.705 : 8=FIXT.1.1|9=63|35=0|49=BME|56=DBL|52=20170822-08:58:58.705|34=6|50=TID|57=SID|10=240|
20170822-08:59:23.460 : 8=FIXT.1.1|9=49|35=0|34=7|49=DBL|52=20170822-08:59:23.460|56=BME|10=222|
20170822-08:59:29.735 : 8=FIXT.1.1|9=63|35=0|49=BME|56=DBL|52=20170822-08:59:29.735|34=7|50=TID|57=SID|10=243|
20170822-09:34:49.335 : 8=FIXT.1.1|9=98|35=A|34=1|49=DBL|50=SID|52=20170822-09:34:49.333|56=BME|57=TID|98=0|108=30|141=Y|1137=4|1408=T4.0|10=113|
20170822-09:34:49.338 : 8=FIXT.1.1|9=98|35=A|49=BME|56=DBL|52=20170822-09:34:49.338|34=1|50=TID|57=SID|98=0|108=30|141=Y|1137=9|1408=T4.0|10=123|
20170822-09:35:17.134 : 8=FIXT.1.1|9=49|35=5|34=2|49=DBL|52=20170822-09:35:17.134|56=BME|10=218|
20170822-09:35:17.134 : 8=FIXT.1.1|9=63|35=5|49=BME|56=DBL|52=20170822-09:35:17.134|34=2|50=TID|57=SID|10=228|
20170822-09:35:27.556 : 8=FIXT.1.1|9=98|35=A|34=1|49=DBL|50=SID|52=20170822-09:35:27.554|56=BME|57=TID|98=0|108=30|141=Y|1137=4|1408=T4.0|10=115|
20170822-09:35:27.558 : 8=FIXT.1.1|9=98|35=A|49=BME|56=DBL|52=20170822-09:35:27.558|34=1|50=TID|57=SID|98=0|108=30|141=Y|1137=9|1408=T4.0|10=124|
20170822-09:35:57.010 : 8=FIXT.1.1|9=49|35=0|34=2|49=DBL|52=20170822-09:35:57.006|56=BME|10=215|
20170822-09:35:58.588 : 8=FIXT.1.1|9=63|35=0|49=BME|56=DBL|52=20170822-09:35:58.588|34=2|50=TID|57=SID|10=241|
20170822-09:36:22.916 : 8=FIXT.1.1|9=49|35=5|34=3|49=DBL|52=20170822-09:36:22.916|56=BME|10=224|
20170822-09:36:22.917 : 8=FIXT.1.1|9=63|35=5|49=BME|56=DBL|52=20170822-09:36:22.916|34=3|50=TID|57=SID|10=234|
20170822-10:44:20.229 : 8=FIXT.1.1|9=98|35=A|34=1|49=DBL|50=SID|52=20170822-10:44:20.227|56=BME|57=TID|98=0|108=30|141=Y|1137=4|1408=T4.0|10=097|
20170822-10:44:20.234 : 8=FIXT.1.1|9=98|35=A|49=BME|56=DBL|52=20170822-10:44:20.231|34=1|50=TID|57=SID|98=0|108=30|141=Y|1137=9|1408=T4.0|10=097|
20170822-10:44:28.111 : 8=FIXT.1.1|9=49|35=5|34=2|49=DBL|52=20170822-10:44:28.111|56=BME|10=207|
20170822-10:44:28.111 : 8=FIXT.1.1|9=63|35=5|49=BME|56=DBL|52=20170822-10:44:28.111|34=2|50=TID|57=SID|10=217|
20170822-10:45:39.706 : 8=FIXT.1.1|9=98|35=A|34=1|49=DBL|50=SID|52=20170822-10:45:39.706|56=BME|57=TID|98=0|108=30|141=Y|1137=4|1408=T4.0|10=110|
20170822-10:45:39.708 : 8=FIXT.1.1|9=98|35=A|49=BME|56=DBL|52=20170822-10:45:39.708|34=1|50=TID|57=SID|98=0|108=30|141=Y|1137=9|1408=T4.0|10=117|
20170822-10:46:09.005 : 8=FIXT.1.1|9=49|35=0|34=2|49=DBL|52=20170822-10:46:09.005|56=BME|10=205|
20170822-10:46:10.737 : 8=FIXT.1.1|9=63|35=0|49=BME|56=DBL|52=20170822-10:46:10.736|34=2|50=TID|57=SID|10=218|
20170822-10:46:39.052 : 8=FIXT.1.1|9=49|35=0|34=3|49=DBL|52=20170822-10:46:39.052|56=BME|10=211|
20170822-10:46:41.766 : 8=FIXT.1.1|9=63|35=0|49=BME|56=DBL|52=20170822-10:46:41.766|34=3|50=TID|57=SID|10=226|
20170822-10:47:09.183 : 8=FIXT.1.1|9=49|35=0|34=4|49=DBL|52=20170822-10:47:09.183|56=BME|10=215|
20170822-10:47:12.794 : 8=FIXT.1.1|9=63|35=0|49=BME|56=DBL|52=20170822-10:47:12.794|34=4|50=TID|57=SID|10=227|
20170822-10:47:36.441 : 8=FIXT.1.1|9=98|35=A|34=1|49=DBL|50=SID|52=20170822-10:47:36.438|56=BME|57=TID|98=0|108=30|141=Y|1137=4|1408=T4.0|10=111|
20170822-10:47:36.442 : 8=FIXT.1.1|9=98|35=A|49=BME|56=DBL|52=20170822-10:47:36.441|34=1|50=TID|57=SID|98=0|108=30|141=Y|1137=9|1408=T4.0|10=110|
20170822-10:48:06.868 : 8=FIXT.1.1|9=49|35=0|34=2|49=DBL|52=20170822-10:48:06.866|56=BME|10=219|
20170822-10:48:07.471 : 8=FIXT.1.1|9=63|35=0|49=BME|56=DBL|52=20170822-10:48:07.471|34=2|50=TID|57=SID|10=222|
20170822-10:48:36.298 : 8=FIXT.1.1|9=49|35=0|34=3|49=DBL|52=20170822-10:48:36.298|56=BME|10=222|
20170822-10:48:38.505 : 8=FIXT.1.1|9=63|35=0|49=BME|56=DBL|52=20170822-10:48:38.503|34=3|50=TID|57=SID|10=223|
20170822-10:49:06.531 : 8=FIXT.1.1|9=49|35=0|34=4|49=DBL|52=20170822-10:49:06.531|56=BME|10=211|
20170822-10:49:09.535 : 8=FIXT.1.1|9=63|35=0|49=BME|56=DBL|52=20170822-10:49:09.532|34=4|50=TID|57=SID|10=225|
20170822-10:49:29.665 : 8=FIXT.1.1|9=98|35=A|34=1|49=DBL|50=SID|52=20170822-10:49:29.663|56=BME|57=TID|98=0|108=30|141=Y|1137=4|1408=T4.0|10=115|
20170822-10:49:29.667 : 8=FIXT.1.1|9=98|35=A|49=BME|56=DBL|52=20170822-10:49:29.666|34=1|50=TID|57=SID|98=0|108=30|141=Y|1137=9|1408=T4.0|10=123|
20170822-10:49:41.366 : 8=FIXT.1.1|9=49|35=5|34=2|49=DBL|52=20170822-10:49:41.366|56=BME|10=219|
20170822-10:49:41.370 : 8=FIXT.1.1|9=63|35=5|49=BME|56=DBL|52=20170822-10:49:41.367|34=2|50=TID|57=SID|10=230|
20170822-10:51:38.074 : 8=FIXT.1.1|9=98|35=A|34=1|49=DBL|50=SID|52=20170822-10:51:38.074|56=BME|57=TID|98=0|108=30|141=Y|1137=4|1408=T4.0|10=104|
20170822-10:51:38.078 : 8=FIXT.1.1|9=98|35=A|49=BME|56=DBL|52=20170822-10:51:38.076|34=1|50=TID|57=SID|98=0|108=30|141=Y|1137=9|1408=T4.0|10=111|
20170822-10:51:42.331 : 8=FIXT.1.1|9=49|35=5|34=2|49=DBL|52=20170822-10:51:42.331|56=BME|10=205|
20170822-10:51:42.333 : 8=FIXT.1.1|9=63|35=5|49=BME|56=DBL|52=20170822-10:51:42.332|34=2|50=TID|57=SID|10=216|
20170822-10:51:51.147 : 8=FIXT.1.1|9=98|35=A|34=1|49=DBL|50=SID|52=20170822-10:51:51.144|56=BME|57=TID|98=0|108=30|141=Y|1137=4|1408=T4.0|10=097|
20170822-10:51:51.150 : 8=FIXT.1.1|9=98|35=A|49=BME|56=DBL|52=20170822-10:51:51.149|34=1|50=TID|57=SID|98=0|108=30|141=Y|1137=9|1408=T4.0|10=107|
20170822-10:52:21.078 : 8=FIXT.1.1|9=49|35=0|34=2|49=DBL|52=20170822-10:52:21.078|56=BME|10=206|
20170822-10:52:22.183 : 8=FIXT.1.1|9=63|35=0|49=BME|56=DBL|52=20170822-10:52:22.183|34=2|50=TID|57=SID|10=214|
20170822-10:52:24.769 : 8=FIXT.1.1|9=49|35=5|34=3|49=DBL|52=20170822-10:52:24.768|56=BME|10=221|
20170822-10:52:24.769 : 8=FIXT.1.1|9=63|35=5|49=BME|56=DBL|52=20170822-10:52:24.769|34=3|50=TID|57=SID|10=232|
20170822-10:53:14.858 : 8=FIXT.1.1|9=98|35=A|34=1|49=DBL|50=SID|52=20170822-10:53:14.848|56=BME|57=TID|98=0|108=30|141=Y|1137=4|1408=T4.0|10=109|
20170822-10:53:14.859 : 8=FIXT.1.1|9=98|35=A|49=BME|56=DBL|52=20170822-10:53:14.858|34=1|50=TID|57=SID|98=0|108=30|141=Y|1137=9|1408=T4.0|10=115|
20170822-10:53:19.048 : 8=FIXT.1.1|9=49|35=5|34=2|49=DBL|52=20170822-10:53:19.048|56=BME|10=216|
20170822-10:53:19.048 : 8=FIXT.1.1|9=63|35=5|49=BME|56=DBL|52=20170822-10:53:19.048|34=2|50=TID|57=SID|10=226|
20170822-10:54:59.042 : 8=FIXT.1.1|9=98|35=A|34=1|49=DBL|50=SID|52=20170822-10:54:59.039|56=BME|57=TID|98=0|108=30|141=Y|1137=4|1408=T4.0|10=111|
20170822-10:54:59.044 : 8=FIXT.1.1|9=98|35=A|49=BME|56=DBL|52=20170822-10:54:59.043|34=1|50=TID|57=SID|98=0|108=30|141=Y|1137=9|1408=T4.0|10=111|
20170822-10:55:29.351 : 8=FIXT.1.1|9=49|35=0|34=2|49=DBL|52=20170822-10:55:29.351|56=BME|10=211|
20170822-10:55:30.079 : 8=FIXT.1.1|9=63|35=0|49=BME|56=DBL|52=20170822-10:55:30.078|34=2|50=TID|57=SID|10=219|
20170822-10:55:59.020 : 8=FIXT.1.1|9=49|35=0|34=3|49=DBL|52=20170822-10:55:59.006|56=BME|10=212|
20170822-10:56:01.112 : 8=FIXT.1.1|9=63|35=0|49=BME|56=DBL|52=20170822-10:56:01.109|34=3|50=TID|57=SID|10=214|
20170822-10:56:29.985 : 8=FIXT.1.1|9=49|35=0|34=4|49=DBL|52=20170822-10:56:29.985|56=BME|10=227|
20170822-10:56:32.136 : 8=FIXT.1.1|9=63|35=0|49=BME|56=DBL|52=20170822-10:56:32.136|34=4|50=TID|57=SID|10=219|
20170822-10:56:59.541 : 8=FIXT.1.1|9=49|35=0|34=5|49=DBL|52=20170822-10:56:59.537|56=BME|10=224|
20170822-10:57:03.170 : 8=FIXT.1.1|9=63|35=0|49=BME|56=DBL|52=20170822-10:57:03.169|34=5|50=TID|57=SID|10=225|
20170822-10:57:29.525 : 8=FIXT.1.1|9=49|35=0|34=6|49=DBL|52=20170822-10:57:29.522|56=BME|10=217|
20170822-10:57:34.198 : 8=FIXT.1.1|9=63|35=0|49=BME|56=DBL|52=20170822-10:57:34.198|34=6|50=TID|57=SID|10=232|
20170822-10:57:59.099 : 8=FIXT.1.1|9=49|35=0|34=7|49=DBL|52=20170822-10:57:59.098|56=BME|10=229|
20170822-10:58:05.231 : 8=FIXT.1.1|9=63|35=0|49=BME|56=DBL|52=20170822-10:58:05.230|34=7|50=TID|57=SID|10=219|
20170822-10:58:29.139 : 8=FIXT.1.1|9=49|35=0|34=8|49=DBL|52=20170822-10:58:29.139|56=BME|10=224|
20170822-10:58:36.258 : 8=FIXT.1.1|9=63|35=0|49=BME|56=DBL|52=20170822-10:58:36.257|34=8|50=TID|57=SID|10=233|
20170822-10:58:59.125 : 8=FIXT.1.1|9=49|35=0|34=9|49=DBL|52=20170822-10:58:59.123|56=BME|10=221|
20170822-10:59:07.288 : 8=FIXT.1.1|9=63|35=0|49=BME|56=DBL|52=20170822-10:59:07.288|34=9|50=TID|57=SID|10=237|
20170822-10:59:29.469 : 8=FIXT.1.1|9=50|35=0|34=10|49=DBL|52=20170822-10:59:29.469|56=BME|10=008|
20170822-10:59:39.917 : 8=FIXT.1.1|9=98|35=A|34=1|49=DBL|50=SID|52=20170822-10:59:39.914|56=BME|57=TID|98=0|108=30|141=Y|1137=4|1408=T4.0|10=116|
20170822-10:59:39.917 : 8=FIXT.1.1|9=98|35=A|49=BME|56=DBL|52=20170822-10:59:39.917|34=1|50=TID|57=SID|98=0|108=30|141=Y|1137=9|1408=T4.0|10=124|
20170822-10:59:50.077 : 8=FIXT.1.1|9=49|35=5|34=2|49=DBL|52=20170822-10:59:50.077|56=BME|10=219|
20170822-10:59:50.077 : 8=FIXT.1.1|9=63|35=5|49=BME|56=DBL|52=20170822-10:59:50.077|34=2|50=TID|57=SID|10=229|
20170822-11:01:43.180 : 8=FIXT.1.1|9=98|35=A|34=1|49=DBL|50=SID|52=20170822-11:01:43.177|56=BME|57=TID|98=0|108=30|141=Y|1137=4|1408=T4.0|10=100|
20170822-11:01:43.181 : 8=FIXT.1.1|9=98|35=A|49=BME|56=DBL|52=20170822-11:01:43.181|34=1|50=TID|57=SID|98=0|108=30|141=Y|1137=9|1408=T4.0|10=100|
20170822-11:01:47.812 : 8=FIXT.1.1|9=49|35=5|34=2|49=DBL|52=20170822-11:01:47.812|56=BME|10=210|
20170822-11:01:47.813 : 8=FIXT.1.1|9=63|35=5|49=BME|56=DBL|52=20170822-11:01:47.812|34=2|50=TID|57=SID|10=220|
20170822-11:04:44.145 : 8=FIXT.1.1|9=98|35=A|34=1|49=DBL|50=SID|52=20170822-11:04:44.141|56=BME|57=TID|98=0|108=30|141=Y|1137=4|1408=T4.0|10=095|
20170822-11:04:44.146 : 8=FIXT.1.1|9=98|35=A|49=BME|56=DBL|52=20170822-11:04:44.145|34=1|50=TID|57=SID|98=0|108=30|141=Y|1137=9|1408=T4.0|10=104|
20170822-11:05:12.996 : 8=FIXT.1.1|9=49|35=5|34=2|49=DBL|52=20170822-11:05:12.996|56=BME|10=219|
20170822-11:05:12.996 : 8=FIXT.1.1|9=63|35=5|49=BME|56=DBL|52=20170822-11:05:12.996|34=2|50=TID|57=SID|10=229|
20170822-11:05:26.280 : 8=FIXT.1.1|9=98|35=A|34=1|49=DBL|50=SID|52=20170822-11:05:26.275|56=BME|57=TID|98=0|108=30|141=Y|1137=4|1408=T4.0|10=104|
20170822-11:05:26.281 : 8=FIXT.1.1|9=98|35=A|49=BME|56=DBL|52=20170822-11:05:26.281|34=1|50=TID|57=SID|98=0|108=30|141=Y|1137=9|1408=T4.0|10=106|
20170822-11:05:56.996 : 8=FIXT.1.1|9=49|35=0|34=2|49=DBL|52=20170822-11:05:56.996|56=BME|10=222|
20170822-11:05:57.311 : 8=FIXT.1.1|9=63|35=0|49=BME|56=DBL|52=20170822-11:05:57.311|34=2|50=TID|57=SID|10=214|
20170822-11:06:26.913 : 8=FIXT.1.1|9=49|35=0|34=3|49=DBL|52=20170822-11:06:26.911|56=BME|10=208|
20170822-11:06:28.344 : 8=FIXT.1.1|9=63|35=0|49=BME|56=DBL|52=20170822-11:06:28.343|34=3|50=TID|57=SID|10=219|
20170822-13:18:12.680 : 8=FIXT.1.1|9=98|35=A|34=1|49=DBL|50=SID|52=20170822-13:18:12.677|56=BME|57=TID|98=0|108=30|141=Y|1137=4|1408=T4.0|10=111|
20170822-13:18:12.681 : 8=FIXT.1.1|9=98|35=A|49=BME|56=DBL|52=20170822-13:18:12.680|34=1|50=TID|57=SID|98=0|108=30|141=Y|1137=9|1408=T4.0|10=110|
20170822-13:18:19.095 : 8=FIXT.1.1|9=49|35=5|34=2|49=DBL|52=20170822-13:18:19.094|56=BME|10=221|
20170822-13:18:19.095 : 8=FIXT.1.1|9=63|35=5|49=BME|56=DBL|52=20170822-13:18:19.095|34=2|50=TID|57=SID|10=232|
20170822-13:18:26.320 : 8=FIXT.1.1|9=98|35=A|34=1|49=DBL|50=SID|52=20170822-13:18:26.318|56=BME|57=TID|98=0|108=30|141=Y|1137=4|1408=T4.0|10=108|
20170822-13:18:26.321 : 8=FIXT.1.1|9=98|35=A|49=BME|56=DBL|52=20170822-13:18:26.321|34=1|50=TID|57=SID|98=0|108=30|141=Y|1137=9|1408=T4.0|10=107|
20170822-13:18:56.879 : 8=FIXT.1.1|9=49|35=0|34=2|49=DBL|52=20170822-13:18:56.879|56=BME|10=228|
20170822-13:18:57.351 : 8=FIXT.1.1|9=63|35=0|49=BME|56=DBL|52=20170822-13:18:57.351|34=2|50=TID|57=SID|10=224|
20170822-13:19:05.620 : 8=FIXT.1.1|9=49|35=5|34=3|49=DBL|52=20170822-13:19:05.620|56=BME|10=213|
20170822-13:19:05.621 : 8=FIXT.1.1|9=63|35=5|49=BME|56=DBL|52=20170822-13:19:05.620|34=3|50=TID|57=SID|10=223|
20170822-13:19:11.453 : 8=FIXT.1.1|9=98|35=A|34=1|49=DBL|50=SID|52=20170822-13:19:11.451|56=BME|57=TID|98=0|108=30|141=Y|1137=4|1408=T4.0|10=101|
20170822-13:19:11.454 : 8=FIXT.1.1|9=98|35=A|49=BME|56=DBL|52=20170822-13:19:11.453|34=1|50=TID|57=SID|98=0|108=30|141=Y|1137=9|1408=T4.0|10=108|
20170822-13:19:36.844 : 8=FIXT.1.1|9=49|35=5|34=2|49=DBL|52=20170822-13:19:36.844|56=BME|10=224|
20170822-13:19:36.845 : 8=FIXT.1.1|9=63|35=5|49=BME|56=DBL|52=20170822-13:19:36.844|34=2|50=TID|57=SID|10=234|
20170822-13:20:31.165 : 8=FIXT.1.1|9=98|35=A|34=1|49=DBL|50=SID|52=20170822-13:20:31.157|56=BME|57=TID|98=0|108=30|141=Y|1137=4|1408=T4.0|10=098|
20170822-13:20:31.167 : 8=FIXT.1.1|9=98|35=A|49=BME|56=DBL|52=20170822-13:20:31.166|34=1|50=TID|57=SID|98=0|108=30|141=Y|1137=9|1408=T4.0|10=103|
20170822-13:20:34.716 : 8=FIXT.1.1|9=49|35=5|34=2|49=DBL|52=20170822-13:20:34.716|56=BME|10=212|
20170822-13:20:34.716 : 8=FIXT.1.1|9=63|35=5|49=BME|56=DBL|52=20170822-13:20:34.716|34=2|50=TID|57=SID|10=222|
20170822-13:21:04.029 : 8=FIXT.1.1|9=98|35=A|34=1|49=DBL|50=SID|52=20170822-13:21:04.024|56=BME|57=TID|98=0|108=30|141=Y|1137=4|1408=T4.0|10=092|
20170822-13:21:04.030 : 8=FIXT.1.1|9=98|35=A|49=BME|56=DBL|52=20170822-13:21:04.030|34=1|50=TID|57=SID|98=0|108=30|141=Y|1137=9|1408=T4.0|10=094|
20170822-13:21:18.125 : 8=FIXT.1.1|9=49|35=5|34=2|49=DBL|52=20170822-13:21:18.125|56=BME|10=209|
20170822-13:21:18.128 : 8=FIXT.1.1|9=63|35=5|49=BME|56=DBL|52=20170822-13:21:18.126|34=2|50=TID|57=SID|10=220|
20170822-13:38:28.987 : 8=FIXT.1.1|9=98|35=A|34=1|49=DBL|50=SID|52=20170822-13:38:28.984|56=BME|57=TID|98=0|108=30|141=Y|1137=4|1408=T4.0|10=121|
20170822-13:38:28.991 : 8=FIXT.1.1|9=98|35=A|49=BME|56=DBL|52=20170822-13:38:28.990|34=1|50=TID|57=SID|98=0|108=30|141=Y|1137=9|1408=T4.0|10=123|
20170822-13:38:58.642 : 8=FIXT.1.1|9=49|35=0|34=2|49=DBL|52=20170822-13:38:58.642|56=BME|10=220|
20170822-13:38:59.019 : 8=FIXT.1.1|9=63|35=0|49=BME|56=DBL|52=20170822-13:38:59.017|34=2|50=TID|57=SID|10=227|
20170822-13:39:28.130 : 8=FIXT.1.1|9=49|35=0|34=3|49=DBL|52=20170822-13:39:28.129|56=BME|10=219|
20170822-13:39:30.049 : 8=FIXT.1.1|9=63|35=0|49=BME|56=DBL|52=20170822-13:39:30.049|34=3|50=TID|57=SID|10=223|
20170822-13:39:58.319 : 8=FIXT.1.1|9=49|35=0|34=4|49=DBL|52=20170822-13:39:58.318|56=BME|10=223|
20170822-13:40:01.079 : 8=FIXT.1.1|9=63|35=0|49=BME|56=DBL|52=20170822-13:40:01.079|34=4|50=TID|57=SID|10=217|
20170822-13:40:12.298 : 8=FIXT.1.1|9=49|35=5|34=5|49=DBL|52=20170822-13:40:12.298|56=BME|10=218|
20170822-13:40:12.298 : 8=FIXT.1.1|9=63|35=5|49=BME|56=DBL|52=20170822-13:40:12.298|34=5|50=TID|57=SID|10=228|
20170822-13:46:06.191 : 8=FIXT.1.1|9=98|35=A|34=1|49=DBL|50=SID|52=20170822-13:46:06.186|56=BME|57=TID|98=0|108=30|141=Y|1137=4|1408=T4.0|10=110|
20170822-13:46:06.193 : 8=FIXT.1.1|9=98|35=A|49=BME|56=DBL|52=20170822-13:46:06.192|34=1|50=TID|57=SID|98=0|108=30|141=Y|1137=9|1408=T4.0|10=112|
20170822-13:46:32.880 : 8=FIXT.1.1|9=49|35=5|34=2|49=DBL|52=20170822-13:46:32.879|56=BME|10=228|
20170822-13:46:32.880 : 8=FIXT.1.1|9=63|35=5|49=BME|56=DBL|52=20170822-13:46:32.880|34=2|50=TID|57=SID|10=230|
20170822-13:46:36.772 : 8=FIXT.1.1|9=98|35=A|34=1|49=DBL|50=SID|52=20170822-13:46:36.769|56=BME|57=TID|98=0|108=30|141=Y|1137=4|1408=T4.0|10=120|
20170822-13:46:36.773 : 8=FIXT.1.1|9=98|35=A|49=BME|56=DBL|52=20170822-13:46:36.772|34=1|50=TID|57=SID|98=0|108=30|141=Y|1137=9|1408=T4.0|10=119|
20170822-13:47:06.123 : 8=FIXT.1.1|9=49|35=0|34=2|49=DBL|52=20170822-13:47:06.121|56=BME|10=205|
20170822-13:47:07.805 : 8=FIXT.1.1|9=63|35=0|49=BME|56=DBL|52=20170822-13:47:07.805|34=2|50=TID|57=SID|10=225|
20170822-13:47:36.849 : 8=FIXT.1.1|9=49|35=0|34=3|49=DBL|52=20170822-13:47:36.846|56=BME|10=223|
20170822-13:47:38.838 : 8=FIXT.1.1|9=63|35=0|49=BME|56=DBL|52=20170822-13:47:38.838|34=3|50=TID|57=SID|10=236|
20170822-13:48:06.343 : 8=FIXT.1.1|9=49|35=0|34=4|49=DBL|52=20170822-13:48:06.342|56=BME|10=213|
20170822-13:48:09.861 : 8=FIXT.1.1|9=63|35=0|49=BME|56=DBL|52=20170822-13:48:09.861|34=4|50=TID|57=SID|10=232|
20170822-13:48:36.125 : 8=FIXT.1.1|9=49|35=0|34=5|49=DBL|52=20170822-13:48:36.125|56=BME|10=216|
20170822-13:48:40.891 : 8=FIXT.1.1|9=63|35=0|49=BME|56=DBL|52=20170822-13:48:40.891|34=5|50=TID|57=SID|10=231|
20170822-13:49:06.214 : 8=FIXT.1.1|9=49|35=0|34=6|49=DBL|52=20170822-13:49:06.214|56=BME|10=214|
20170822-13:49:11.921 : 8=FIXT.1.1|9=63|35=0|49=BME|56=DBL|52=20170822-13:49:11.920|34=6|50=TID|57=SID|10=224|
20170822-13:49:36.156 : 8=FIXT.1.1|9=49|35=0|34=7|49=DBL|52=20170822-13:49:36.156|56=BME|10=223|
20170822-13:49:42.944 : 8=FIXT.1.1|9=63|35=0|49=BME|56=DBL|52=20170822-13:49:42.944|34=7|50=TID|57=SID|10=235|
20170822-13:50:06.125 : 8=FIXT.1.1|9=49|35=0|34=8|49=DBL|52=20170822-13:50:06.124|56=BME|10=208|
20170822-13:50:13.971 : 8=FIXT.1.1|9=63|35=0|49=BME|56=DBL|52=20170822-13:50:13.970|34=8|50=TID|57=SID|10=225|
20170822-13:50:36.961 : 8=FIXT.1.1|9=49|35=0|34=9|49=DBL|52=20170822-13:50:36.960|56=BME|10=220|
20170822-13:50:44.995 : 8=FIXT.1.1|9=63|35=0|49=BME|56=DBL|52=20170822-13:50:44.995|34=9|50=TID|57=SID|10=237|
20170822-13:51:06.258 : 8=FIXT.1.1|9=50|35=0|34=10|49=DBL|52=20170822-13:51:06.254|56=BME|10=246|
20170822-13:51:15.024 : 8=FIXT.1.1|9=64|35=0|49=BME|56=DBL|52=20170822-13:51:15.021|34=10|50=TID|57=SID|10=001|
20170822-13:51:36.585 : 8=FIXT.1.1|9=50|35=0|34=11|49=DBL|52=20170822-13:51:36.585|56=BME|10=001|
20170822-13:51:46.046 : 8=FIXT.1.1|9=64|35=0|49=BME|56=DBL|52=20170822-13:51:46.045|34=11|50=TID|57=SID|10=012|
20170822-13:52:06.860 : 8=FIXT.1.1|9=50|35=0|34=12|49=DBL|52=20170822-13:52:06.860|56=BME|10=252|
20170822-13:52:17.074 : 8=FIXT.1.1|9=64|35=0|49=BME|56=DBL|52=20170822-13:52:17.074|34=12|50=TID|57=SID|10=014|
20170822-13:52:36.986 : 8=FIXT.1.1|9=98|35=A|34=1|49=DBL|50=SID|52=20170822-13:52:36.986|56=BME|57=TID|98=0|108=30|141=Y|1137=4|1408=T4.0|10=118|
20170822-13:52:36.991 : 8=FIXT.1.1|9=98|35=A|49=BME|56=DBL|52=20170822-13:52:36.986|34=1|50=TID|57=SID|98=0|108=30|141=Y|1137=9|1408=T4.0|10=123|
20170822-13:53:06.301 : 8=FIXT.1.1|9=49|35=0|34=2|49=DBL|52=20170822-13:53:06.298|56=BME|10=217|
20170822-13:53:07.016 : 8=FIXT.1.1|9=63|35=0|49=BME|56=DBL|52=20170822-13:53:07.016|34=2|50=TID|57=SID|10=216|
20170822-13:53:36.000 : 8=FIXT.1.1|9=49|35=0|34=3|49=DBL|52=20170822-13:53:36.000|56=BME|10=202|
20170822-13:53:38.054 : 8=FIXT.1.1|9=63|35=0|49=BME|56=DBL|52=20170822-13:53:38.054|34=3|50=TID|57=SID|10=223|
20170822-13:54:06.010 : 8=FIXT.1.1|9=49|35=0|34=4|49=DBL|52=20170822-13:54:06.009|56=BME|10=210|
20170822-13:54:09.083 : 8=FIXT.1.1|9=63|35=0|49=BME|56=DBL|52=20170822-13:54:09.083|34=4|50=TID|57=SID|10=225|
20170822-13:54:36.546 : 8=FIXT.1.1|9=49|35=0|34=5|49=DBL|52=20170822-13:54:36.537|56=BME|10=220|
20170822-13:54:40.115 : 8=FIXT.1.1|9=63|35=0|49=BME|56=DBL|52=20170822-13:54:40.114|34=5|50=TID|57=SID|10=216|
20170822-13:55:05.721 : 8=FIXT.1.1|9=98|35=A|34=1|49=DBL|50=SID|52=20170822-13:55:05.720|56=BME|57=TID|98=0|108=30|141=Y|1137=4|1408=T4.0|10=103|
20170822-13:55:05.724 : 8=FIXT.1.1|9=98|35=A|49=BME|56=DBL|52=20170822-13:55:05.722|34=1|50=TID|57=SID|98=0|108=30|141=Y|1137=9|1408=T4.0|10=110|
20170822-13:55:35.012 : 8=FIXT.1.1|9=49|35=0|34=2|49=DBL|52=20170822-13:55:35.012|56=BME|10=205|
20170822-13:55:36.752 : 8=FIXT.1.1|9=63|35=0|49=BME|56=DBL|52=20170822-13:55:36.752|34=2|50=TID|57=SID|10=227|
20170822-13:56:05.091 : 8=FIXT.1.1|9=49|35=0|34=3|49=DBL|52=20170822-13:56:05.091|56=BME|10=211|
20170822-13:56:07.787 : 8=FIXT.1.1|9=63|35=0|49=BME|56=DBL|52=20170822-13:56:07.786|34=3|50=TID|57=SID|10=234|
20170822-13:56:35.002 : 8=FIXT.1.1|9=49|35=0|34=4|49=DBL|52=20170822-13:56:35.002|56=BME|10=207|
20170822-13:56:38.817 : 8=FIXT.1.1|9=63|35=0|49=BME|56=DBL|52=20170822-13:56:38.817|34=4|50=TID|57=SID|10=234|
20170822-13:57:25.925 : 8=FIXT.1.1|9=98|35=A|34=1|49=DBL|50=SID|52=20170822-13:57:25.924|56=BME|57=TID|98=0|108=30|141=Y|1137=4|1408=T4.0|10=113|
20170822-13:57:25.926 : 8=FIXT.1.1|9=98|35=A|49=BME|56=DBL|52=20170822-13:57:25.926|34=1|50=TID|57=SID|98=0|108=30|141=Y|1137=9|1408=T4.0|10=120|
20170822-13:57:55.435 : 8=FIXT.1.1|9=49|35=0|34=2|49=DBL|52=20170822-13:57:55.434|56=BME|10=217|
20170822-13:57:56.956 : 8=FIXT.1.1|9=63|35=0|49=BME|56=DBL|52=20170822-13:57:56.956|34=2|50=TID|57=SID|10=237|
20170822-13:58:25.264 : 8=FIXT.1.1|9=49|35=0|34=3|49=DBL|52=20170822-13:58:25.263|56=BME|10=216|
20170822-13:58:27.986 : 8=FIXT.1.1|9=63|35=0|49=BME|56=DBL|52=20170822-13:58:27.985|34=3|50=TID|57=SID|10=239|
20170822-13:58:55.467 : 8=FIXT.1.1|9=49|35=0|34=4|49=DBL|52=20170822-13:58:55.467|56=BME|10=226|
20170822-13:58:58.016 : 8=FIXT.1.1|9=63|35=0|49=BME|56=DBL|52=20170822-13:58:58.013|34=4|50=TID|57=SID|10=226|
20170822-13:59:24.861 : 8=FIXT.1.1|9=98|35=A|34=1|49=DBL|50=SID|52=20170822-13:59:24.861|56=BME|57=TID|98=0|108=30|141=Y|1137=4|1408=T4.0|10=114|
20170822-13:59:24.862 : 8=FIXT.1.1|9=98|35=A|49=BME|56=DBL|52=20170822-13:59:24.862|34=1|50=TID|57=SID|98=0|108=30|141=Y|1137=9|1408=T4.0|10=120|
20170822-13:59:54.104 : 8=FIXT.1.1|9=49|35=0|34=2|49=DBL|52=20170822-13:59:54.104|56=BME|10=212|
20170822-13:59:55.889 : 8=FIXT.1.1|9=63|35=0|49=BME|56=DBL|52=20170822-13:59:55.889|34=2|50=TID|57=SID|10=243|
20170822-14:00:24.905 : 8=FIXT.1.1|9=49|35=0|34=3|49=DBL|52=20170822-14:00:24.902|56=BME|10=203|
20170822-14:00:26.919 : 8=FIXT.1.1|9=63|35=0|49=BME|56=DBL|52=20170822-14:00:26.918|34=3|50=TID|57=SID|10=222|
20170822-14:00:54.008 : 8=FIXT.1.1|9=49|35=0|34=4|49=DBL|52=20170822-14:00:54.008|56=BME|10=204|
20170822-14:01:03.120 : 8=FIXT.1.1|9=98|35=A|34=1|49=DBL|50=SID|52=20170822-14:01:03.117|56=BME|57=TID|98=0|108=30|141=Y|1137=4|1408=T4.0|10=093|
20170822-14:01:03.121 : 8=FIXT.1.1|9=98|35=A|49=BME|56=DBL|52=20170822-14:01:03.121|34=1|50=TID|57=SID|98=0|108=30|141=Y|1137=9|1408=T4.0|10=093|
20170822-14:01:33.494 : 8=FIXT.1.1|9=49|35=0|34=2|49=DBL|52=20170822-14:01:33.494|56=BME|10=209|
20170822-14:01:34.155 : 8=FIXT.1.1|9=63|35=0|49=BME|56=DBL|52=20170822-14:01:34.153|34=2|50=TID|57=SID|10=212|
20170822-14:02:10.091 : 8=FIXT.1.1|9=98|35=A|34=1|49=DBL|50=SID|52=20170822-14:02:10.089|56=BME|57=TID|98=0|108=30|141=Y|1137=4|1408=T4.0|10=100|
20170822-14:02:10.096 : 8=FIXT.1.1|9=98|35=A|49=BME|56=DBL|52=20170822-14:02:10.092|34=1|50=TID|57=SID|98=0|108=30|141=Y|1137=9|1408=T4.0|10=099|
20170822-14:02:40.786 : 8=FIXT.1.1|9=49|35=0|34=2|49=DBL|52=20170822-14:02:40.786|56=BME|10=212|
20170822-14:02:41.121 : 8=FIXT.1.1|9=63|35=0|49=BME|56=DBL|52=20170822-14:02:41.121|34=2|50=TID|57=SID|10=206|
20170822-14:03:10.948 : 8=FIXT.1.1|9=49|35=0|34=3|49=DBL|52=20170822-14:03:10.946|56=BME|10=209|
20170822-14:03:12.149 : 8=FIXT.1.1|9=63|35=0|49=BME|56=DBL|52=20170822-14:03:12.149|34=3|50=TID|57=SID|10=216|
20170822-14:03:40.034 : 8=FIXT.1.1|9=49|35=0|34=4|49=DBL|52=20170822-14:03:40.034|56=BME|10=201|
20170822-14:03:43.186 : 8=FIXT.1.1|9=63|35=0|49=BME|56=DBL|52=20170822-14:03:43.186|34=4|50=TID|57=SID|10=222|
20170822-14:04:10.753 : 8=FIXT.1.1|9=49|35=0|34=5|49=DBL|52=20170822-14:04:10.752|56=BME|10=207|
20170822-14:04:14.214 : 8=FIXT.1.1|9=63|35=0|49=BME|56=DBL|52=20170822-14:04:14.214|34=5|50=TID|57=SID|10=214|
20170822-14:04:40.771 : 8=FIXT.1.1|9=49|35=0|34=6|49=DBL|52=20170822-14:04:40.770|56=BME|10=211|
20170822-14:04:45.250 : 8=FIXT.1.1|9=63|35=0|49=BME|56=DBL|52=20170822-14:04:45.250|34=6|50=TID|57=SID|10=219|
20170822-14:05:10.298 : 8=FIXT.1.1|9=49|35=0|34=7|49=DBL|52=20170822-14:05:10.298|56=BME|10=215|
20170822-14:05:16.280 : 8=FIXT.1.1|9=63|35=0|49=BME|56=DBL|52=20170822-14:05:16.280|34=7|50=TID|57=SID|10=222|
20170822-14:05:40.217 : 8=FIXT.1.1|9=49|35=0|34=8|49=DBL|52=20170822-14:05:40.217|56=BME|10=210|
20170822-14:05:47.312 : 8=FIXT.1.1|9=63|35=0|49=BME|56=DBL|52=20170822-14:05:47.312|34=8|50=TID|57=SID|10=223|
20170822-14:06:10.420 : 8=FIXT.1.1|9=49|35=0|34=9|49=DBL|52=20170822-14:06:10.417|56=BME|10=211|
20170822-14:06:18.344 : 8=FIXT.1.1|9=63|35=0|49=BME|56=DBL|52=20170822-14:06:18.344|34=9|50=TID|57=SID|10=228|
20170822-14:06:40.517 : 8=FIXT.1.1|9=50|35=0|34=10|49=DBL|52=20170822-14:06:40.510|56=BME|10=240|
20170822-14:07:06.617 : 8=FIXT.1.1|9=98|35=A|34=1|49=DBL|50=SID|52=20170822-14:07:06.617|56=BME|57=TID|98=0|108=30|141=Y|1137=4|1408=T4.0|10=107|
20170822-14:07:06.618 : 8=FIXT.1.1|9=98|35=A|49=BME|56=DBL|52=20170822-14:07:06.617|34=1|50=TID|57=SID|98=0|108=30|141=Y|1137=9|1408=T4.0|10=112|
20170822-14:07:36.516 : 8=FIXT.1.1|9=49|35=0|34=2|49=DBL|52=20170822-14:07:36.516|56=BME|10=213|
20170822-14:07:37.644 : 8=FIXT.1.1|9=63|35=0|49=BME|56=DBL|52=20170822-14:07:37.644|34=2|50=TID|57=SID|10=226|
20170822-14:08:06.139 : 8=FIXT.1.1|9=49|35=0|34=3|49=DBL|52=20170822-14:08:06.138|56=BME|10=212|
20170822-14:08:08.669 : 8=FIXT.1.1|9=63|35=0|49=BME|56=DBL|52=20170822-14:08:08.668|34=3|50=TID|57=SID|10=232|
20170822-14:08:36.186 : 8=FIXT.1.1|9=49|35=0|34=4|49=DBL|52=20170822-14:08:36.186|56=BME|10=219|
20170822-14:08:39.698 : 8=FIXT.1.1|9=63|35=0|49=BME|56=DBL|52=20170822-14:08:39.697|34=4|50=TID|57=SID|10=239|
20170822-14:09:06.121 : 8=FIXT.1.1|9=49|35=0|34=5|49=DBL|52=20170822-14:09:06.120|56=BME|10=206|
20170822-14:09:10.725 : 8=FIXT.1.1|9=63|35=0|49=BME|56=DBL|52=20170822-14:09:10.725|34=5|50=TID|57=SID|10=222|
20170822-14:09:19.341 : 8=FIXT.1.1|9=98|35=A|34=1|49=DBL|50=SID|52=20170822-14:09:19.334|56=BME|57=TID|98=0|108=30|141=Y|1137=4|1408=T4.0|10=109|
20170822-14:09:19.342 : 8=FIXT.1.1|9=98|35=A|49=BME|56=DBL|52=20170822-14:09:19.341|34=1|50=TID|57=SID|98=0|108=30|141=Y|1137=9|1408=T4.0|10=112|
20170822-14:09:29.124 : 8=FIXT.1.1|9=180|35=D|34=2|49=DBL|52=20170822-14:09:29.124|56=BME|1137=9|11=2017-08-22_828af7bd-0940-4bca-9d15-f7a0e2601d2c|21=1|38=5|40=2|44=20|54=1|55=APPL|59=3|60=20170822-14:09:29|581=1|1030=I|10=099|
20170822-14:09:29.126 : 8=FIXT.1.1|9=214|35=8|49=BME|56=DBL|52=20170822-14:09:29.124|34=2|50=TID|57=SID|37=1|11=2017-08-22_828af7bd-0940-4bca-9d15-f7a0e2601d2c|17=0|150=A|39=A|581=1|55=APPL|54=1|38=5|40=2|44=20|59=3|151=5|14=0|60=20170822-14:09:29|1030=I|10=218|
20170822-14:11:57.234 : 8=FIXT.1.1|9=98|35=A|34=1|49=DBL|50=SID|52=20170822-14:11:57.232|56=BME|57=TID|98=0|108=30|141=Y|1137=4|1408=T4.0|10=101|
20170822-14:11:57.236 : 8=FIXT.1.1|9=98|35=A|49=BME|56=DBL|52=20170822-14:11:57.234|34=1|50=TID|57=SID|98=0|108=30|141=Y|1137=9|1408=T4.0|10=108|
20170822-14:12:10.982 : 8=FIXT.1.1|9=181|35=D|34=2|49=DBL|52=20170822-14:12:10.982|56=BME|1137=9|11=2017-08-22_c2b1abcb-a7c6-4103-831e-0b9ddb336232|21=1|38=10|40=2|44=20|54=1|55=APPL|59=3|60=20170822-14:12:10|581=1|1030=I|10=105|
20170822-14:12:10.984 : 8=FIXT.1.1|9=216|35=8|49=BME|56=DBL|52=20170822-14:12:10.982|34=2|50=TID|57=SID|37=1|11=2017-08-22_c2b1abcb-a7c6-4103-831e-0b9ddb336232|17=0|150=A|39=A|581=1|55=APPL|54=1|38=10|40=2|44=20|59=3|151=10|14=0|60=20170822-14:12:10|1030=I|10=013|
20170822-14:13:27.121 : 8=FIXT.1.1|9=98|35=A|34=1|49=DBL|50=SID|52=20170822-14:13:27.120|56=BME|57=TID|98=0|108=30|141=Y|1137=4|1408=T4.0|10=096|
20170822-14:13:27.122 : 8=FIXT.1.1|9=98|35=A|49=BME|56=DBL|52=20170822-14:13:27.121|34=1|50=TID|57=SID|98=0|108=30|141=Y|1137=9|1408=T4.0|10=102|
20170822-14:13:36.136 : 8=FIXT.1.1|9=181|35=D|34=2|49=DBL|52=20170822-14:13:36.136|56=BME|1137=9|11=2017-08-22_2865892c-9e3e-446e-bfe2-6384f89a6053|21=1|38=10|40=2|44=20|54=1|55=APPL|59=3|60=20170822-14:13:36|581=1|1030=I|10=238|
20170822-14:13:36.138 : 8=FIXT.1.1|9=216|35=8|49=BME|56=DBL|52=20170822-14:13:36.137|34=2|50=TID|57=SID|37=1|11=2017-08-22_2865892c-9e3e-446e-bfe2-6384f89a6053|17=0|150=A|39=A|581=1|55=APPL|54=1|38=10|40=2|44=20|59=3|151=10|14=0|60=20170822-14:13:36|1030=I|10=147|
20170822-14:13:36.187 : 8=FIXT.1.1|9=215|35=8|49=BME|56=DBL|52=20170822-14:13:36.138|34=3|50=TID|57=SID|37=1|11=2017-08-22_2865892c-9e3e-446e-bfe2-6384f89a6053|17=1|150=0|39=0|581=1|55=APPL|54=1|38=10|40=2|44=0|59=3|151=10|14=0|60=20170822-14:13:36|1030=I|10=065|
20170822-14:13:36.215 : 8=FIXT.1.1|9=214|35=8|49=BME|56=DBL|52=20170822-14:13:36.138|34=4|50=TID|57=SID|37=1|11=2017-08-22_2865892c-9e3e-446e-bfe2-6384f89a6053|17=2|150=C|39=8|581=1|55=APPL|54=1|38=10|40=2|44=0|59=3|151=0|14=0|60=20170822-14:13:36|1030=I|10=044|
20170822-14:14:06.444 : 8=FIXT.1.1|9=49|35=0|34=3|49=DBL|52=20170822-14:14:06.443|56=BME|10=208|
20170822-14:14:07.160 : 8=FIXT.1.1|9=63|35=0|49=BME|56=DBL|52=20170822-14:14:07.160|34=5|50=TID|57=SID|10=217|
20170822-14:14:36.283 : 8=FIXT.1.1|9=49|35=0|34=4|49=DBL|52=20170822-14:14:36.283|56=BME|10=214|
20170822-14:14:38.186 : 8=FIXT.1.1|9=63|35=0|49=BME|56=DBL|52=20170822-14:14:38.186|34=6|50=TID|57=SID|10=230|
20170822-14:15:06.573 : 8=FIXT.1.1|9=49|35=0|34=5|49=DBL|52=20170822-14:15:06.573|56=BME|10=215|
20170822-14:15:09.215 : 8=FIXT.1.1|9=63|35=0|49=BME|56=DBL|52=20170822-14:15:09.215|34=7|50=TID|57=SID|10=223|
20170822-14:15:36.118 : 8=FIXT.1.1|9=49|35=0|34=6|49=DBL|52=20170822-14:15:36.111|56=BME|10=207|
20170822-14:15:40.246 : 8=FIXT.1.1|9=63|35=0|49=BME|56=DBL|52=20170822-14:15:40.246|34=8|50=TID|57=SID|10=223|
20170822-14:16:06.255 : 8=FIXT.1.1|9=49|35=0|34=7|49=DBL|52=20170822-14:16:06.255|56=BME|10=215|
20170822-14:16:11.280 : 8=FIXT.1.1|9=63|35=0|49=BME|56=DBL|52=20170822-14:16:11.278|34=9|50=TID|57=SID|10=228|
20170822-14:16:36.036 : 8=FIXT.1.1|9=49|35=0|34=8|49=DBL|52=20170822-14:16:36.036|56=BME|10=216|
20170822-14:16:42.310 : 8=FIXT.1.1|9=64|35=0|49=BME|56=DBL|52=20170822-14:16:42.310|34=10|50=TID|57=SID|10=004|
20170822-14:17:06.146 : 8=FIXT.1.1|9=49|35=0|34=9|49=DBL|52=20170822-14:17:06.141|56=BME|10=212|
20170822-14:17:13.341 : 8=FIXT.1.1|9=64|35=0|49=BME|56=DBL|52=20170822-14:17:13.340|34=11|50=TID|57=SID|10=007|
20170822-14:17:36.146 : 8=FIXT.1.1|9=50|35=0|34=10|49=DBL|52=20170822-14:17:36.146|56=BME|10=252|
20170822-14:17:44.371 : 8=FIXT.1.1|9=64|35=0|49=BME|56=DBL|52=20170822-14:17:44.371|34=12|50=TID|57=SID|10=016|
20170822-14:18:06.128 : 8=FIXT.1.1|9=50|35=0|34=11|49=DBL|52=20170822-14:18:06.124|56=BME|10=247|
20170822-14:18:15.403 : 8=FIXT.1.1|9=64|35=0|49=BME|56=DBL|52=20170822-14:18:15.403|34=13|50=TID|57=SID|10=012|
20170822-14:18:36.274 : 8=FIXT.1.1|9=50|35=0|34=12|49=DBL|52=20170822-14:18:36.268|56=BME|10=004|
20170822-14:18:46.428 : 8=FIXT.1.1|9=64|35=0|49=BME|56=DBL|52=20170822-14:18:46.428|34=14|50=TID|57=SID|10=024|
20170822-14:19:06.436 : 8=FIXT.1.1|9=50|35=0|34=13|49=DBL|52=20170822-14:19:06.432|56=BME|10=252|
20170822-14:19:17.462 : 8=FIXT.1.1|9=64|35=0|49=BME|56=DBL|52=20170822-14:19:17.462|34=15|50=TID|57=SID|10=022|
20170822-14:19:36.100 : 8=FIXT.1.1|9=50|35=0|34=14|49=DBL|52=20170822-14:19:36.099|56=BME|10=009|
20170822-14:19:48.490 : 8=FIXT.1.1|9=64|35=0|49=BME|56=DBL|52=20170822-14:19:48.490|34=16|50=TID|57=SID|10=028|
20170822-14:20:06.381 : 8=FIXT.1.1|9=50|35=0|34=15|49=DBL|52=20170822-14:20:06.376|56=BME|10=253|
20170822-14:20:19.519 : 8=FIXT.1.1|9=64|35=0|49=BME|56=DBL|52=20170822-14:20:19.519|34=17|50=TID|57=SID|10=021|
20170822-14:20:36.862 : 8=FIXT.1.1|9=50|35=0|34=16|49=DBL|52=20170822-14:20:36.862|56=BME|10=001|
20170822-14:20:50.551 : 8=FIXT.1.1|9=64|35=0|49=BME|56=DBL|52=20170822-14:20:50.551|34=18|50=TID|57=SID|10=013|
20170822-14:21:06.029 : 8=FIXT.1.1|9=50|35=0|34=17|49=DBL|52=20170822-14:21:06.029|56=BME|10=251|
20170822-14:21:21.578 : 8=FIXT.1.1|9=64|35=0|49=BME|56=DBL|52=20170822-14:21:21.577|34=19|50=TID|57=SID|10=021|
20170822-14:21:36.752 : 8=FIXT.1.1|9=50|35=0|34=18|49=DBL|52=20170822-14:21:36.752|56=BME|10=002|
20170822-14:21:52.607 : 8=FIXT.1.1|9=64|35=0|49=BME|56=DBL|52=20170822-14:21:52.607|34=20|50=TID|57=SID|10=011|
20170822-14:22:06.711 : 8=FIXT.1.1|9=50|35=0|34=19|49=DBL|52=20170822-14:22:06.707|56=BME|10=001|
20170822-14:22:23.635 : 8=FIXT.1.1|9=64|35=0|49=BME|56=DBL|52=20170822-14:22:23.634|34=21|50=TID|57=SID|10=011|
20170822-14:23:44.284 : 8=FIXT.1.1|9=98|35=A|34=1|49=DBL|50=SID|52=20170822-14:23:44.256|56=BME|57=TID|98=0|108=30|141=Y|1137=4|1408=T4.0|10=106|
20170822-14:23:44.288 : 8=FIXT.1.1|9=98|35=A|49=BME|56=DBL|52=20170822-14:23:44.284|34=1|50=TID|57=SID|98=0|108=30|141=Y|1137=9|1408=T4.0|10=112|
20170822-14:23:48.297 : 8=FIXT.1.1|9=49|35=5|34=2|49=DBL|52=20170822-14:23:48.297|56=BME|10=225|
20170822-14:23:48.297 : 8=FIXT.1.1|9=63|35=5|49=BME|56=DBL|52=20170822-14:23:48.297|34=2|50=TID|57=SID|10=235|
20170822-14:23:50.901 : 8=FIXT.1.1|9=98|35=A|34=1|49=DBL|50=SID|52=20170822-14:23:50.891|56=BME|57=TID|98=0|108=30|141=Y|1137=4|1408=T4.0|10=108|
20170822-14:23:50.907 : 8=FIXT.1.1|9=98|35=A|49=BME|56=DBL|52=20170822-14:23:50.902|34=1|50=TID|57=SID|98=0|108=30|141=Y|1137=9|1408=T4.0|10=106|
20170822-14:24:20.137 : 8=FIXT.1.1|9=49|35=0|34=2|49=DBL|52=20170822-14:24:20.099|56=BME|10=211|
20170822-14:24:21.938 : 8=FIXT.1.1|9=63|35=0|49=BME|56=DBL|52=20170822-14:24:21.938|34=2|50=TID|57=SID|10=224|
20170822-14:24:50.404 : 8=FIXT.1.1|9=49|35=0|34=3|49=DBL|52=20170822-14:24:50.404|56=BME|10=205|
20170822-14:24:52.973 : 8=FIXT.1.1|9=63|35=0|49=BME|56=DBL|52=20170822-14:24:52.973|34=3|50=TID|57=SID|10=228|
20170822-14:25:20.048 : 8=FIXT.1.1|9=49|35=0|34=4|49=DBL|52=20170822-14:25:20.048|56=BME|10=208|
20170822-14:25:23.008 : 8=FIXT.1.1|9=63|35=0|49=BME|56=DBL|52=20170822-14:25:23.008|34=4|50=TID|57=SID|10=217|
20170822-14:26:13.839 : 8=FIXT.1.1|9=98|35=A|34=1|49=DBL|50=SID|52=20170822-14:26:13.828|56=BME|57=TID|98=0|108=30|141=Y|1137=4|1408=T4.0|10=110|
20170822-14:26:13.840 : 8=FIXT.1.1|9=98|35=A|49=BME|56=DBL|52=20170822-14:26:13.839|34=1|50=TID|57=SID|98=0|108=30|141=Y|1137=9|1408=T4.0|10=117|
20170822-14:26:43.040 : 8=FIXT.1.1|9=49|35=0|34=2|49=DBL|52=20170822-14:26:43.038|56=BME|10=211|
20170822-14:26:44.874 : 8=FIXT.1.1|9=63|35=0|49=BME|56=DBL|52=20170822-14:26:44.874|34=2|50=TID|57=SID|10=230|
20170822-14:27:13.059 : 8=FIXT.1.1|9=49|35=0|34=3|49=DBL|52=20170822-14:27:13.058|56=BME|10=212|
20170822-14:27:15.909 : 8=FIXT.1.1|9=63|35=0|49=BME|56=DBL|52=20170822-14:27:15.909|34=3|50=TID|57=SID|10=229|
20170822-14:27:43.459 : 8=FIXT.1.1|9=49|35=0|34=4|49=DBL|52=20170822-14:27:43.457|56=BME|10=219|
20170822-14:27:46.941 : 8=FIXT.1.1|9=63|35=0|49=BME|56=DBL|52=20170822-14:27:46.940|34=4|50=TID|57=SID|10=229|
20170822-14:29:00.314 : 8=FIXT.1.1|9=98|35=A|34=1|49=DBL|50=SID|52=20170822-14:29:00.313|56=BME|57=TID|98=0|108=30|141=Y|1137=4|1408=T4.0|10=098|
20170822-14:29:00.316 : 8=FIXT.1.1|9=98|35=A|49=BME|56=DBL|52=20170822-14:29:00.315|34=1|50=TID|57=SID|98=0|108=30|141=Y|1137=9|1408=T4.0|10=105|
20170822-14:29:30.245 : 8=FIXT.1.1|9=49|35=0|34=2|49=DBL|52=20170822-14:29:30.245|56=BME|10=210|
20170822-14:29:31.338 : 8=FIXT.1.1|9=63|35=0|49=BME|56=DBL|52=20170822-14:29:31.338|34=2|50=TID|57=SID|10=224|
20170822-14:30:00.078 : 8=FIXT.1.1|9=49|35=0|34=3|49=DBL|52=20170822-14:30:00.077|56=BME|10=203|
20170822-14:30:02.367 : 8=FIXT.1.1|9=63|35=0|49=BME|56=DBL|52=20170822-14:30:02.367|34=3|50=TID|57=SID|10=217|
20170822-14:30:17.825 : 8=FIXT.1.1|9=98|35=A|34=1|49=DBL|50=SID|52=20170822-14:30:17.824|56=BME|57=TID|98=0|108=30|141=Y|1137=4|1408=T4.0|10=105|
20170822-14:30:17.826 : 8=FIXT.1.1|9=98|35=A|49=BME|56=DBL|52=20170822-14:30:17.826|34=1|50=TID|57=SID|98=0|108=30|141=Y|1137=9|1408=T4.0|10=112|
20170822-14:30:28.154 : 8=FIXT.1.1|9=180|35=D|34=2|49=DBL|52=20170822-14:30:28.154|56=BME|1137=9|11=2017-08-22_bac314d6-3b52-4681-9f0e-d022b6ca542e|21=1|38=10|40=2|44=5|54=1|55=APPL|59=3|60=20170822-14:30:28|581=1|1030=I|10=033|
20170822-14:30:28.156 : 8=FIXT.1.1|9=215|35=8|49=BME|56=DBL|52=20170822-14:30:28.154|34=2|50=TID|57=SID|37=1|11=2017-08-22_bac314d6-3b52-4681-9f0e-d022b6ca542e|17=0|150=A|39=A|581=1|55=APPL|54=1|38=10|40=2|44=5|59=3|151=10|14=0|60=20170822-14:30:28|1030=I|10=197|
20170822-14:30:28.228 : 8=FIXT.1.1|9=215|35=8|49=BME|56=DBL|52=20170822-14:30:28.155|34=3|50=TID|57=SID|37=1|11=2017-08-22_bac314d6-3b52-4681-9f0e-d022b6ca542e|17=1|150=0|39=0|581=1|55=APPL|54=1|38=10|40=2|44=0|59=3|151=10|14=0|60=20170822-14:30:28|1030=I|10=161|
20170822-14:30:28.275 : 8=FIXT.1.1|9=214|35=8|49=BME|56=DBL|52=20170822-14:30:28.155|34=4|50=TID|57=SID|37=1|11=2017-08-22_bac314d6-3b52-4681-9f0e-d022b6ca542e|17=2|150=C|39=8|581=1|55=APPL|54=1|38=10|40=2|44=0|59=3|151=0|14=0|60=20170822-14:30:28|1030=I|10=140|
20170822-14:30:58.267 : 8=FIXT.1.1|9=49|35=0|34=3|49=DBL|52=20170822-14:30:58.267|56=BME|10=217|
20170822-14:30:59.871 : 8=FIXT.1.1|9=63|35=0|49=BME|56=DBL|52=20170822-14:30:59.871|34=5|50=TID|57=SID|10=231|
20170822-14:31:28.030 : 8=FIXT.1.1|9=49|35=0|34=4|49=DBL|52=20170822-14:31:28.021|56=BME|10=204|
20170822-14:31:30.906 : 8=FIXT.1.1|9=63|35=0|49=BME|56=DBL|52=20170822-14:31:30.905|34=6|50=TID|57=SID|10=220|
20170822-14:31:58.169 : 8=FIXT.1.1|9=49|35=0|34=5|49=DBL|52=20170822-14:31:58.169|56=BME|10=221|
20170822-14:32:17.675 : 8=FIXT.1.1|9=98|35=A|34=1|49=DBL|50=SID|52=20170822-14:32:17.675|56=BME|57=TID|98=0|108=30|141=Y|1137=4|1408=T4.0|10=111|
20170822-14:32:17.677 : 8=FIXT.1.1|9=98|35=A|49=BME|56=DBL|52=20170822-14:32:17.676|34=1|50=TID|57=SID|98=0|108=30|141=Y|1137=9|1408=T4.0|10=117|
20170822-14:32:35.565 : 8=FIXT.1.1|9=180|35=D|34=2|49=DBL|52=20170822-14:32:35.563|56=BME|1137=9|11=2017-08-22_68521563-fb49-4971-ad4c-eb798f52a0b8|21=1|38=5|40=2|44=20|54=1|55=APPL|59=3|60=20170822-14:32:35|581=1|1030=I|10=232|
20170822-14:32:35.567 : 8=FIXT.1.1|9=214|35=8|49=BME|56=DBL|52=20170822-14:32:35.565|34=2|50=TID|57=SID|37=1|11=2017-08-22_68521563-fb49-4971-ad4c-eb798f52a0b8|17=0|150=A|39=A|581=1|55=APPL|54=1|38=5|40=2|44=20|59=3|151=5|14=0|60=20170822-14:32:35|1030=I|10=097|
20170822-14:32:35.629 : 8=FIXT.1.1|9=213|35=8|49=BME|56=DBL|52=20170822-14:32:35.566|34=3|50=TID|57=SID|37=1|11=2017-08-22_68521563-fb49-4971-ad4c-eb798f52a0b8|17=1|150=0|39=0|581=1|55=APPL|54=1|38=5|40=2|44=0|59=3|151=5|14=0|60=20170822-14:32:35|1030=I|10=015|
20170822-14:32:35.682 : 8=FIXT.1.1|9=213|35=8|49=BME|56=DBL|52=20170822-14:32:35.567|34=4|50=TID|57=SID|37=1|11=2017-08-22_68521563-fb49-4971-ad4c-eb798f52a0b8|17=2|150=C|39=8|581=1|55=APPL|54=1|38=5|40=2|44=0|59=3|151=0|14=0|60=20170822-14:32:35|1030=I|10=040|
20170822-14:33:05.139 : 8=FIXT.1.1|9=49|35=0|34=3|49=DBL|52=20170822-14:33:05.137|56=BME|10=208|
20170822-14:33:06.722 : 8=FIXT.1.1|9=63|35=0|49=BME|56=DBL|52=20170822-14:33:06.722|34=5|50=TID|57=SID|10=221|
20170822-14:33:35.231 : 8=FIXT.1.1|9=49|35=0|34=4|49=DBL|52=20170822-14:33:35.229|56=BME|10=214|
20170822-14:33:37.751 : 8=FIXT.1.1|9=63|35=0|49=BME|56=DBL|52=20170822-14:33:37.751|34=6|50=TID|57=SID|10=228|
20170822-14:34:05.087 : 8=FIXT.1.1|9=49|35=0|34=5|49=DBL|52=20170822-14:34:05.087|56=BME|10=215|
20170822-14:34:08.787 : 8=FIXT.1.1|9=63|35=0|49=BME|56=DBL|52=20170822-14:34:08.787|34=7|50=TID|57=SID|10=237|
20170822-14:34:11.234 : 8=FIXT.1.1|9=49|35=5|34=6|49=DBL|52=20170822-14:34:11.234|56=BME|10=212|
20170822-14:34:11.234 : 8=FIXT.1.1|9=63|35=5|49=BME|56=DBL|52=20170822-14:34:11.234|34=8|50=TID|57=SID|10=224|
20170822-14:34:24.139 : 8=FIXT.1.1|9=98|35=A|34=1|49=DBL|50=SID|52=20170822-14:34:24.127|56=BME|57=TID|98=0|108=30|141=Y|1137=4|1408=T4.0|10=103|
20170822-14:34:24.140 : 8=FIXT.1.1|9=98|35=A|49=BME|56=DBL|52=20170822-14:34:24.139|34=1|50=TID|57=SID|98=0|108=30|141=Y|1137=9|1408=T4.0|10=111|
20170822-14:34:54.344 : 8=FIXT.1.1|9=49|35=0|34=2|49=DBL|52=20170822-14:34:54.340|56=BME|10=208|
20170822-14:40:07.753 : 8=FIXT.1.1|9=98|35=A|34=1|49=DBL|50=SID|52=20170822-14:40:07.736|56=BME|57=TID|98=0|108=30|141=Y|1137=4|1408=T4.0|10=107|
20170822-14:40:07.754 : 8=FIXT.1.1|9=98|35=A|49=BME|56=DBL|52=20170822-14:40:07.754|34=1|50=TID|57=SID|98=0|108=30|141=Y|1137=9|1408=T4.0|10=112|
20170822-14:40:37.666 : 8=FIXT.1.1|9=49|35=0|34=2|49=DBL|52=20170822-14:40:37.666|56=BME|10=217|
20170822-14:40:38.781 : 8=FIXT.1.1|9=63|35=0|49=BME|56=DBL|52=20170822-14:40:38.781|34=2|50=TID|57=SID|10=226|
20170822-14:40:38.934 : 8=FIXT.1.1|9=180|35=D|34=3|49=DBL|52=20170822-14:40:38.932|56=BME|1137=9|11=2017-08-22_2dc93641-8b61-47bd-bb83-0b28418776c5|21=1|38=-4|40=2|44=6|54=1|55=APPL|59=3|60=20170822-14:40:38|581=1|1030=I|10=178|
20170822-14:40:38.935 : 8=FIXT.1.1|9=223|35=8|49=BME|56=DBL|52=20170822-14:40:38.934|34=3|50=TID|57=SID|37=1|11=2017-08-22_2dc93641-8b61-47bd-bb83-0b28418776c5|17=0|150=A|39=A|581=1|55=APPL|54=1|38=4294967292|40=2|44=6|59=3|151=-4|14=0|60=20170822-14:40:38|1030=I|10=012|
20170822-14:40:39.005 : 8=FIXT.1.1|9=223|35=8|49=BME|56=DBL|52=20170822-14:40:38.935|34=4|50=TID|57=SID|37=1|11=2017-08-22_2dc93641-8b61-47bd-bb83-0b28418776c5|17=1|150=0|39=0|581=1|55=APPL|54=1|38=4294967292|40=2|44=0|59=3|151=-4|14=0|60=20170822-14:40:38|1030=I|10=231|
20170822-14:40:39.069 : 8=FIXT.1.1|9=222|35=8|49=BME|56=DBL|52=20170822-14:40:38.935|34=5|50=TID|57=SID|37=1|11=2017-08-22_2dc93641-8b61-47bd-bb83-0b28418776c5|17=2|150=C|39=8|581=1|55=APPL|54=1|38=4294967292|40=2|44=0|59=3|151=0|14=0|60=20170822-14:40:38|1030=I|10=210|
20170822-14:41:08.663 : 8=FIXT.1.1|9=49|35=0|34=4|49=DBL|52=20170822-14:41:08.652|56=BME|10=213|
20170822-14:41:09.811 : 8=FIXT.1.1|9=63|35=0|49=BME|56=DBL|52=20170822-14:41:09.809|34=6|50=TID|57=SID|10=230|
20170822-14:41:38.060 : 8=FIXT.1.1|9=49|35=0|34=5|49=DBL|52=20170822-14:41:38.055|56=BME|10=214|
20170822-14:41:40.837 : 8=FIXT.1.1|9=63|35=0|49=BME|56=DBL|52=20170822-14:41:40.836|34=7|50=TID|57=SID|10=226|
20170822-14:41:44.481 : 8=FIXT.1.1|9=49|35=5|34=6|49=DBL|52=20170822-14:41:44.481|56=BME|10=220|
20170822-14:41:44.481 : 8=FIXT.1.1|9=63|35=5|49=BME|56=DBL|52=20170822-14:41:44.481|34=8|50=TID|57=SID|10=232|
20170822-14:42:45.881 : 8=FIXT.1.1|9=98|35=A|34=1|49=DBL|50=SID|52=20170822-14:42:45.876|56=BME|57=TID|98=0|108=30|141=Y|1137=4|1408=T4.0|10=116|
20170822-14:42:45.882 : 8=FIXT.1.1|9=98|35=A|49=BME|56=DBL|52=20170822-14:42:45.881|34=1|50=TID|57=SID|98=0|108=30|141=Y|1137=9|1408=T4.0|10=117|
20170822-14:42:52.426 : 8=FIXT.1.1|9=181|35=D|34=2|49=DBL|52=20170822-14:42:52.424|56=BME|1137=9|11=2017-08-22_f479198f-cb29-4b74-a2f9-b2bd383173ce|21=1|38=100|40=2|44=1|54=1|55=CSCO|59=3|60=20170822-14:42:52|581=1|1030=I|10=106|
20170822-14:42:52.428 : 8=FIXT.1.1|9=217|35=8|49=BME|56=DBL|52=20170822-14:42:52.426|34=2|50=TID|57=SID|37=1|11=2017-08-22_f479198f-cb29-4b74-a2f9-b2bd383173ce|17=0|150=A|39=A|581=1|55=CSCO|54=1|38=100|40=2|44=1|59=3|151=100|14=0|60=20170822-14:42:52|1030=I|10=065|
20170822-14:42:52.483 : 8=FIXT.1.1|9=217|35=8|49=BME|56=DBL|52=20170822-14:42:52.427|34=3|50=TID|57=SID|37=1|11=2017-08-22_f479198f-cb29-4b74-a2f9-b2bd383173ce|17=1|150=0|39=0|581=1|55=CSCO|54=1|38=100|40=2|44=0|59=3|151=100|14=0|60=20170822-14:42:52|1030=I|10=033|
20170822-14:42:52.536 : 8=FIXT.1.1|9=215|35=8|49=BME|56=DBL|52=20170822-14:42:52.427|34=4|50=TID|57=SID|37=1|11=2017-08-22_f479198f-cb29-4b74-a2f9-b2bd383173ce|17=2|150=C|39=8|581=1|55=CSCO|54=1|38=100|40=2|44=0|59=3|151=0|14=0|60=20170822-14:42:52|1030=I|10=219|
20170822-14:43:22.266 : 8=FIXT.1.1|9=49|35=0|34=3|49=DBL|52=20170822-14:43:22.253|56=BME|10=207|
20170822-14:43:23.921 : 8=FIXT.1.1|9=63|35=0|49=BME|56=DBL|52=20170822-14:43:23.921|34=5|50=TID|57=SID|10=222|
20170822-14:43:52.527 : 8=FIXT.1.1|9=49|35=0|34=4|49=DBL|52=20170822-14:43:52.522|56=BME|10=210|
20170822-14:43:54.950 : 8=FIXT.1.1|9=63|35=0|49=BME|56=DBL|52=20170822-14:43:54.949|34=6|50=TID|57=SID|10=237|
20170822-14:44:22.277 : 8=FIXT.1.1|9=49|35=0|34=5|49=DBL|52=20170822-14:44:22.275|56=BME|10=214|
20170822-14:44:25.980 : 8=FIXT.1.1|9=63|35=0|49=BME|56=DBL|52=20170822-14:44:25.980|34=7|50=TID|57=SID|10=232|
20170822-14:44:52.025 : 8=FIXT.1.1|9=49|35=0|34=6|49=DBL|52=20170822-14:44:52.021|56=BME|10=207|
20170822-14:44:56.007 : 8=FIXT.1.1|9=63|35=0|49=BME|56=DBL|52=20170822-14:44:56.007|34=8|50=TID|57=SID|10=227|
20170822-14:45:22.046 : 8=FIXT.1.1|9=49|35=0|34=7|49=DBL|52=20170822-14:45:22.046|56=BME|10=213|
20170822-14:45:27.034 : 8=FIXT.1.1|9=63|35=0|49=BME|56=DBL|52=20170822-14:45:27.034|34=9|50=TID|57=SID|10=227|
20170822-14:45:31.062 : 8=FIXT.1.1|9=179|35=D|34=8|49=DBL|52=20170822-14:45:31.062|56=BME|1137=9|11=2017-08-22_c06f70b8-9b61-4794-82d6-06ec1d033a12|21=1|38=1|40=2|44=1|54=1|55=CSCO|59=3|60=20170822-14:45:31|581=1|1030=I|10=112|
20170822-14:45:31.064 : 8=FIXT.1.1|9=214|35=8|49=BME|56=DBL|52=20170822-14:45:31.062|34=10|50=TID|57=SID|37=2|11=2017-08-22_c06f70b8-9b61-4794-82d6-06ec1d033a12|17=3|150=A|39=A|581=1|55=CSCO|54=1|38=1|40=2|44=1|59=3|151=1|14=0|60=20170822-14:45:31|1030=I|10=008|
20170822-14:45:31.150 : 8=FIXT.1.1|9=214|35=8|49=BME|56=DBL|52=20170822-14:45:31.063|34=11|50=TID|57=SID|37=2|11=2017-08-22_c06f70b8-9b61-4794-82d6-06ec1d033a12|17=4|150=0|39=0|581=1|55=CSCO|54=1|38=1|40=2|44=0|59=3|151=1|14=0|60=20170822-14:45:31|1030=I|10=232|
20170822-14:45:31.240 : 8=FIXT.1.1|9=214|35=8|49=BME|56=DBL|52=20170822-14:45:31.064|34=12|50=TID|57=SID|37=2|11=2017-08-22_c06f70b8-9b61-4794-82d6-06ec1d033a12|17=5|150=C|39=8|581=1|55=CSCO|54=1|38=1|40=2|44=0|59=3|151=0|14=0|60=20170822-14:45:31|1030=I|10=005|
20170822-14:46:01.295 : 8=FIXT.1.1|9=49|35=0|34=9|49=DBL|52=20170822-14:46:01.259|56=BME|10=219|
20170822-14:46:02.066 : 8=FIXT.1.1|9=64|35=0|49=BME|56=DBL|52=20170822-14:46:02.066|34=13|50=TID|57=SID|10=014|
20170822-14:46:31.005 : 8=FIXT.1.1|9=50|35=0|34=10|49=DBL|52=20170822-14:46:31.003|56=BME|10=241|
20170822-14:46:33.096 : 8=FIXT.1.1|9=64|35=0|49=BME|56=DBL|52=20170822-14:46:33.095|34=14|50=TID|57=SID|10=021|
20170822-14:47:01.363 : 8=FIXT.1.1|9=50|35=0|34=11|49=DBL|52=20170822-14:47:01.355|56=BME|10=250|
20170822-14:47:04.122 : 8=FIXT.1.1|9=64|35=0|49=BME|56=DBL|52=20170822-14:47:04.122|34=15|50=TID|57=SID|10=012|
20170822-14:47:31.009 : 8=FIXT.1.1|9=50|35=0|34=12|49=DBL|52=20170822-14:47:31.000|56=BME|10=241|
20170822-14:47:35.149 : 8=FIXT.1.1|9=64|35=0|49=BME|56=DBL|52=20170822-14:47:35.149|34=16|50=TID|57=SID|10=026|
20170822-14:48:01.351 : 8=FIXT.1.1|9=50|35=0|34=13|49=DBL|52=20170822-14:48:01.350|56=BME|10=248|
20170822-14:48:06.173 : 8=FIXT.1.1|9=64|35=0|49=BME|56=DBL|52=20170822-14:48:06.173|34=17|50=TID|57=SID|10=023|
20170822-14:48:31.251 : 8=FIXT.1.1|9=50|35=0|34=14|49=DBL|52=20170822-14:48:31.246|56=BME|10=000|
20170822-14:48:37.203 : 8=FIXT.1.1|9=64|35=0|49=BME|56=DBL|52=20170822-14:48:37.202|34=18|50=TID|57=SID|10=021|
20170822-14:49:01.607 : 8=FIXT.1.1|9=50|35=0|34=15|49=DBL|52=20170822-14:49:01.598|56=BME|10=009|
20170822-14:49:08.234 : 8=FIXT.1.1|9=64|35=0|49=BME|56=DBL|52=20170822-14:49:08.231|34=19|50=TID|57=SID|10=023|
20170822-14:49:31.021 : 8=FIXT.1.1|9=50|35=0|34=16|49=DBL|52=20170822-14:49:31.021|56=BME|10=250|
20170822-14:49:39.262 : 8=FIXT.1.1|9=64|35=0|49=BME|56=DBL|52=20170822-14:49:39.262|34=20|50=TID|57=SID|10=023|
20170822-14:50:01.158 : 8=FIXT.1.1|9=50|35=0|34=17|49=DBL|52=20170822-14:50:01.157|56=BME|10=250|
20170822-14:50:10.287 : 8=FIXT.1.1|9=64|35=0|49=BME|56=DBL|52=20170822-14:50:10.287|34=21|50=TID|57=SID|10=012|
20170822-14:50:29.422 : 8=FIXT.1.1|9=185|35=D|34=18|49=DBL|52=20170822-14:50:29.422|56=BME|1137=9|11=2017-08-22_2ce14a27-806f-4bc9-8aaa-ecc1fb02acce|21=1|38=1|40=2|44=100000|54=1|55=CSCO|59=3|60=20170822-14:50:29|581=1|1030=I|10=053|
20170822-14:50:29.424 : 8=FIXT.1.1|9=219|35=8|49=BME|56=DBL|52=20170822-14:50:29.423|34=22|50=TID|57=SID|37=3|11=2017-08-22_2ce14a27-806f-4bc9-8aaa-ecc1fb02acce|17=6|150=A|39=A|581=1|55=CSCO|54=1|38=1|40=2|44=100000|59=3|151=1|14=0|60=20170822-14:50:29|1030=I|10=172|
20170822-14:50:29.478 : 8=FIXT.1.1|9=214|35=8|49=BME|56=DBL|52=20170822-14:50:29.423|34=23|50=TID|57=SID|37=3|11=2017-08-22_2ce14a27-806f-4bc9-8aaa-ecc1fb02acce|17=7|150=0|39=0|581=1|55=CSCO|54=1|38=1|40=2|44=0|59=3|151=1|14=0|60=20170822-14:50:29|1030=I|10=150|
20170822-14:50:29.530 : 8=FIXT.1.1|9=214|35=8|49=BME|56=DBL|52=20170822-14:50:29.424|34=24|50=TID|57=SID|37=3|11=2017-08-22_2ce14a27-806f-4bc9-8aaa-ecc1fb02acce|17=8|150=C|39=8|581=1|55=CSCO|54=1|38=1|40=2|44=0|59=3|151=0|14=0|60=20170822-14:50:29|1030=I|10=179|
20170822-14:50:59.028 : 8=FIXT.1.1|9=50|35=0|34=19|49=DBL|52=20170822-14:50:59.026|56=BME|10=004|
20170822-14:51:00.332 : 8=FIXT.1.1|9=64|35=0|49=BME|56=DBL|52=20170822-14:51:00.331|34=25|50=TID|57=SID|10=006|
20170822-14:51:29.194 : 8=FIXT.1.1|9=50|35=0|34=20|49=DBL|52=20170822-14:51:29.187|56=BME|10=002|
20170822-14:51:31.359 : 8=FIXT.1.1|9=64|35=0|49=BME|56=DBL|52=20170822-14:51:31.358|34=26|50=TID|57=SID|10=020|
20170822-14:51:59.810 : 8=FIXT.1.1|9=50|35=0|34=21|49=DBL|52=20170822-14:51:59.804|56=BME|10=002|
20170822-14:52:02.388 : 8=FIXT.1.1|9=64|35=0|49=BME|56=DBL|52=20170822-14:52:02.388|34=27|50=TID|57=SID|10=023|
20170822-14:52:29.240 : 8=FIXT.1.1|9=50|35=0|34=22|49=DBL|52=20170822-14:52:29.230|56=BME|10=250|
20170822-14:52:33.419 : 8=FIXT.1.1|9=64|35=0|49=BME|56=DBL|52=20170822-14:52:33.419|34=28|50=TID|57=SID|10=023|
20170822-14:52:59.098 : 8=FIXT.1.1|9=50|35=0|34=23|49=DBL|52=20170822-14:52:59.097|56=BME|10=009|
20170822-14:53:04.450 : 8=FIXT.1.1|9=64|35=0|49=BME|56=DBL|52=20170822-14:53:04.450|34=29|50=TID|57=SID|10=018|
20170822-14:53:11.038 : 8=FIXT.1.1|9=185|35=D|34=24|49=DBL|52=20170822-14:53:11.038|56=BME|1137=9|11=2017-08-22_636a7756-d0f1-480c-a876-299110aa31b1|21=1|38=10|40=2|44=1e+15|54=1|55=CSCO|59=3|60=20170822-14:53:11|581=1|1030=I|10=139|
20170822-14:53:11.045 : 8=FIXT.1.1|9=220|35=8|49=BME|56=DBL|52=20170822-14:53:11.039|34=30|50=TID|57=SID|37=4|11=2017-08-22_636a7756-d0f1-480c-a876-299110aa31b1|17=9|150=A|39=A|581=1|55=CSCO|54=1|38=10|40=2|44=1e+15|59=3|151=10|14=0|60=20170822-14:53:11|1030=I|10=048|
20170822-14:53:11.062 : 8=FIXT.1.1|9=110|35=3|34=25|49=DBL|52=20170822-14:53:11.054|56=BME|45=30|58=Incorrect data format for value|371=44|372=8|373=6|10=242|
20170822-14:53:11.063 : 8=FIXT.1.1|9=217|35=8|49=BME|56=DBL|52=20170822-14:53:11.040|34=31|50=TID|57=SID|37=4|11=2017-08-22_636a7756-d0f1-480c-a876-299110aa31b1|17=10|150=0|39=0|581=1|55=CSCO|54=1|38=10|40=2|44=0|59=3|151=10|14=0|60=20170822-14:53:11|1030=I|10=062|
20170822-14:53:11.146 : 8=FIXT.1.1|9=216|35=8|49=BME|56=DBL|52=20170822-14:53:11.040|34=32|50=TID|57=SID|37=4|11=2017-08-22_636a7756-d0f1-480c-a876-299110aa31b1|17=11|150=C|39=8|581=1|55=CSCO|54=1|38=10|40=2|44=0|59=3|151=0|14=0|60=20170822-14:53:11|1030=I|10=041|
20170822-14:53:41.206 : 8=FIXT.1.1|9=50|35=0|34=26|49=DBL|52=20170822-14:53:41.199|56=BME|10=007|
20170822-14:53:42.485 : 8=FIXT.1.1|9=64|35=0|49=BME|56=DBL|52=20170822-14:53:42.485|34=33|50=TID|57=SID|10=023|
20170822-14:54:02.705 : 8=FIXT.1.1|9=182|35=D|34=27|49=DBL|52=20170822-14:54:02.695|56=BME|1137=9|11=2017-08-22_94c4d1f7-09dd-44cf-8ef4-de076de394ea|21=1|38=1|40=2|44=200|54=1|55=APPL|59=3|60=20170822-14:54:02|581=1|1030=I|10=066|
20170822-14:54:02.717 : 8=FIXT.1.1|9=217|35=8|49=BME|56=DBL|52=20170822-14:54:02.705|34=34|50=TID|57=SID|37=5|11=2017-08-22_94c4d1f7-09dd-44cf-8ef4-de076de394ea|17=12|150=A|39=A|581=1|55=APPL|54=1|38=1|40=2|44=200|59=3|151=1|14=0|60=20170822-14:54:02|1030=I|10=227|
20170822-14:54:02.819 : 8=FIXT.1.1|9=215|35=8|49=BME|56=DBL|52=20170822-14:54:02.706|34=35|50=TID|57=SID|37=5|11=2017-08-22_94c4d1f7-09dd-44cf-8ef4-de076de394ea|17=13|150=0|39=0|581=1|55=APPL|54=1|38=1|40=2|44=0|59=3|151=1|14=0|60=20170822-14:54:02|1030=I|10=096|
20170822-14:54:02.890 : 8=FIXT.1.1|9=215|35=8|49=BME|56=DBL|52=20170822-14:54:02.706|34=36|50=TID|57=SID|37=5|11=2017-08-22_94c4d1f7-09dd-44cf-8ef4-de076de394ea|17=14|150=C|39=8|581=1|55=APPL|54=1|38=1|40=2|44=0|59=3|151=0|14=0|60=20170822-14:54:02|1030=I|10=124|
20170822-14:54:32.097 : 8=FIXT.1.1|9=50|35=0|34=28|49=DBL|52=20170822-14:54:32.095|56=BME|10=005|
20170822-14:54:33.536 : 8=FIXT.1.1|9=64|35=0|49=BME|56=DBL|52=20170822-14:54:33.536|34=37|50=TID|57=SID|10=025|
20170822-14:55:02.011 : 8=FIXT.1.1|9=50|35=0|34=29|49=DBL|52=20170822-14:55:02.011|56=BME|10=248|
20170822-14:55:04.569 : 8=FIXT.1.1|9=64|35=0|49=BME|56=DBL|52=20170822-14:55:04.568|34=38|50=TID|57=SID|10=030|
20170822-14:55:32.493 : 8=FIXT.1.1|9=50|35=0|34=30|49=DBL|52=20170822-14:55:32.491|56=BME|10=255|
20170822-14:55:35.598 : 8=FIXT.1.1|9=64|35=0|49=BME|56=DBL|52=20170822-14:55:35.598|34=39|50=TID|57=SID|10=038|
20170822-14:56:02.202 : 8=FIXT.1.1|9=50|35=0|34=31|49=DBL|52=20170822-14:56:02.166|56=BME|10=253|
20170822-14:56:06.628 : 8=FIXT.1.1|9=64|35=0|49=BME|56=DBL|52=20170822-14:56:06.628|34=40|50=TID|57=SID|10=023|
20170822-14:56:32.999 : 8=FIXT.1.1|9=50|35=0|34=32|49=DBL|52=20170822-14:56:32.999|56=BME|10=015|
20170822-14:56:37.659 : 8=FIXT.1.1|9=64|35=0|49=BME|56=DBL|52=20170822-14:56:37.659|34=41|50=TID|57=SID|10=032|
20170822-15:42:32.612 : 8=FIXT.1.1|9=98|35=A|34=1|49=DBL|50=SID|52=20170822-15:42:32.599|56=BME|57=TID|98=0|108=30|141=Y|1137=4|1408=T4.0|10=115|
20170822-15:42:32.615 : 8=FIXT.1.1|9=98|35=A|49=BME|56=DBL|52=20170822-15:42:32.613|34=1|50=TID|57=SID|98=0|108=30|141=Y|1137=9|1408=T4.0|10=107|
20170822-15:42:45.726 : 8=FIXT.1.1|9=176|35=D|34=2|49=DBL|52=20170822-15:42:45.726|56=BME|1137=9|11=2017-08-22_be2059a0-9fef-403d-b3f2-25590b4ba0f4|21=1|38=2|40=2|44=100|54=2|55=APPL|60=20170822-15:42:45|581=1|1030=I|10=179|
20170822-15:42:45.728 : 8=FIXT.1.1|9=210|35=8|49=BME|56=DBL|52=20170822-15:42:45.727|34=2|50=TID|57=SID|37=1|11=2017-08-22_be2059a0-9fef-403d-b3f2-25590b4ba0f4|17=0|150=A|39=A|581=1|55=APPL|54=2|38=2|40=2|44=100|151=2|14=0|60=20170822-15:42:45|1030=I|10=031|
20170822-15:42:45.732 : 8=FIXT.1.1|9=176|35=D|34=3|49=DBL|52=20170822-15:42:45.732|56=BME|1137=9|11=2017-08-22_671e6db5-34ed-4fef-8736-12d1b148fd90|21=1|38=2|40=2|44=100|54=1|55=APPL|60=20170822-15:42:45|581=1|1030=I|10=153|
20170822-15:42:45.864 : 8=FIXT.1.1|9=208|35=8|49=BME|56=DBL|52=20170822-15:42:45.728|34=3|50=TID|57=SID|37=1|11=2017-08-22_be2059a0-9fef-403d-b3f2-25590b4ba0f4|17=1|150=0|39=0|581=1|55=APPL|54=2|38=2|40=2|44=0|151=2|14=0|60=20170822-15:42:45|1030=I|10=166|
20170822-15:42:45.922 : 8=FIXT.1.1|9=210|35=8|49=BME|56=DBL|52=20170822-15:42:45.735|34=4|50=TID|57=SID|37=2|11=2017-08-22_671e6db5-34ed-4fef-8736-12d1b148fd90|17=2|150=A|39=A|581=1|55=APPL|54=1|38=2|40=2|44=100|151=2|14=0|60=20170822-15:42:45|1030=I|10=011|
20170822-15:42:45.957 : 8=FIXT.1.1|9=208|35=8|49=BME|56=DBL|52=20170822-15:42:45.736|34=5|50=TID|57=SID|37=2|11=2017-08-22_671e6db5-34ed-4fef-8736-12d1b148fd90|17=3|150=0|39=0|581=1|55=APPL|54=1|38=2|40=2|44=0|151=2|14=0|60=20170822-15:42:45|1030=I|10=146|
20170822-15:42:46.006 : 8=FIXT.1.1|9=210|35=8|49=BME|56=DBL|52=20170822-15:42:45.737|34=6|50=TID|57=SID|37=2|11=2017-08-22_671e6db5-34ed-4fef-8736-12d1b148fd90|17=4|150=F|39=2|581=1|55=APPL|54=1|38=2|40=2|44=100|151=0|14=2|60=20170822-15:42:45|1030=I|10=007|
20170822-15:42:46.064 : 8=FIXT.1.1|9=210|35=8|49=BME|56=DBL|52=20170822-15:42:45.737|34=7|50=TID|57=SID|37=1|11=2017-08-22_be2059a0-9fef-403d-b3f2-25590b4ba0f4|17=5|150=F|39=2|581=1|55=APPL|54=2|38=2|40=2|44=100|151=0|14=2|60=20170822-15:42:45|1030=I|10=032|
20170822-15:43:15.198 : 8=FIXT.1.1|9=49|35=0|34=4|49=DBL|52=20170822-15:43:15.194|56=BME|10=215|
20170822-15:43:16.661 : 8=FIXT.1.1|9=63|35=0|49=BME|56=DBL|52=20170822-15:43:16.661|34=8|50=TID|57=SID|10=229|
20170822-15:43:45.214 : 8=FIXT.1.1|9=49|35=0|34=5|49=DBL|52=20170822-15:43:45.203|56=BME|10=210|
20170822-15:43:47.697 : 8=FIXT.1.1|9=63|35=0|49=BME|56=DBL|52=20170822-15:43:47.697|34=9|50=TID|57=SID|10=243|
20170822-15:43:58.385 : 8=FIXT.1.1|9=49|35=5|34=6|49=DBL|52=20170822-15:43:58.384|56=BME|10=230|
20170822-15:43:58.386 : 8=FIXT.1.1|9=64|35=5|49=BME|56=DBL|52=20170822-15:43:58.385|34=10|50=TID|57=SID|10=029|
20170822-16:01:24.508 : 8=FIXT.1.1|9=98|35=A|34=1|49=DBL|50=SID|52=20170822-16:01:24.501|56=BME|57=TID|98=0|108=30|141=Y|1137=4|1408=T4.0|10=095|
20170822-16:01:24.510 : 8=FIXT.1.1|9=98|35=A|49=BME|56=DBL|52=20170822-16:01:24.509|34=1|50=TID|57=SID|98=0|108=30|141=Y|1137=9|1408=T4.0|10=108|
20170822-16:01:53.094 : 8=FIXT.1.1|9=176|35=D|34=2|49=DBL|52=20170822-16:01:53.092|56=BME|1137=9|11=2017-08-22_e2686890-2988-4e8f-b3a2-62492e76ad16|21=1|38=10|40=2|44=20|54=2|55=APPL|60=20170822-16:01:53|581=1|1030=I|10=222|
20170822-16:01:53.096 : 8=FIXT.1.1|9=211|35=8|49=BME|56=DBL|52=20170822-16:01:53.094|34=2|50=TID|57=SID|37=1|11=2017-08-22_e2686890-2988-4e8f-b3a2-62492e76ad16|17=0|150=A|39=A|581=1|55=APPL|54=2|38=10|40=2|44=20|151=10|14=0|60=20170822-16:01:53|1030=I|10=123|
20170822-16:01:53.098 : 8=FIXT.1.1|9=176|35=D|34=3|49=DBL|52=20170822-16:01:53.098|56=BME|1137=9|11=2017-08-22_3acfbb36-1af8-442e-9fc8-b9429df816b3|21=1|38=10|40=2|44=20|54=1|55=APPL|60=20170822-16:01:53|581=1|1030=I|10=244|
20170822-16:01:53.169 : 8=FIXT.1.1|9=210|35=8|49=BME|56=DBL|52=20170822-16:01:53.095|34=3|50=TID|57=SID|37=1|11=2017-08-22_e2686890-2988-4e8f-b3a2-62492e76ad16|17=1|150=0|39=0|581=1|55=APPL|54=2|38=10|40=2|44=0|151=10|14=0|60=20170822-16:01:53|1030=I|10=041|
20170822-16:01:53.242 : 8=FIXT.1.1|9=211|35=8|49=BME|56=DBL|52=20170822-16:01:53.098|34=4|50=TID|57=SID|37=2|11=2017-08-22_3acfbb36-1af8-442e-9fc8-b9429df816b3|17=2|150=A|39=A|581=1|55=APPL|54=1|38=10|40=2|44=20|151=10|14=0|60=20170822-16:01:53|1030=I|10=147|
20170822-16:01:53.304 : 8=FIXT.1.1|9=210|35=8|49=BME|56=DBL|52=20170822-16:01:53.099|34=5|50=TID|57=SID|37=2|11=2017-08-22_3acfbb36-1af8-442e-9fc8-b9429df816b3|17=3|150=0|39=0|581=1|55=APPL|54=1|38=10|40=2|44=0|151=10|14=0|60=20170822-16:01:53|1030=I|10=065|
20170822-16:01:53.361 : 8=FIXT.1.1|9=211|35=8|49=BME|56=DBL|52=20170822-16:01:53.099|34=6|50=TID|57=SID|37=2|11=2017-08-22_3acfbb36-1af8-442e-9fc8-b9429df816b3|17=4|150=F|39=2|581=1|55=APPL|54=1|38=10|40=2|44=20|151=0|14=10|60=20170822-16:01:53|1030=I|10=142|
20170822-16:01:53.453 : 8=FIXT.1.1|9=211|35=8|49=BME|56=DBL|52=20170822-16:01:53.099|34=7|50=TID|57=SID|37=1|11=2017-08-22_e2686890-2988-4e8f-b3a2-62492e76ad16|17=5|150=F|39=2|581=1|55=APPL|54=2|38=10|40=2|44=20|151=0|14=10|60=20170822-16:01:53|1030=I|10=128|
20170822-16:02:23.040 : 8=FIXT.1.1|9=49|35=0|34=4|49=DBL|52=20170822-16:02:23.004|56=BME|10=200|
20170822-16:02:24.562 : 8=FIXT.1.1|9=63|35=0|49=BME|56=DBL|52=20170822-16:02:24.562|34=8|50=TID|57=SID|10=224|
20170822-16:02:53.161 : 8=FIXT.1.1|9=49|35=0|34=5|49=DBL|52=20170822-16:02:53.161|56=BME|10=208|
20170822-16:02:55.596 : 8=FIXT.1.1|9=63|35=0|49=BME|56=DBL|52=20170822-16:02:55.594|34=9|50=TID|57=SID|10=234|
20170822-16:03:23.090 : 8=FIXT.1.1|9=49|35=0|34=6|49=DBL|52=20170822-16:03:23.086|56=BME|10=213|
20170822-16:03:26.622 : 8=FIXT.1.1|9=64|35=0|49=BME|56=DBL|52=20170822-16:03:26.622|34=10|50=TID|57=SID|10=010|
20170822-16:03:53.402 : 8=FIXT.1.1|9=49|35=0|34=7|49=DBL|52=20170822-16:03:53.402|56=BME|10=209|
20170822-16:03:57.652 : 8=FIXT.1.1|9=64|35=0|49=BME|56=DBL|52=20170822-16:03:57.652|34=11|50=TID|57=SID|10=018|
20170822-16:04:23.040 : 8=FIXT.1.1|9=49|35=0|34=8|49=DBL|52=20170822-16:04:23.034|56=BME|10=209|
20170822-16:04:28.689 : 8=FIXT.1.1|9=64|35=0|49=BME|56=DBL|52=20170822-16:04:28.688|34=12|50=TID|57=SID|10=027|
20170822-16:05:06.260 : 8=FIXT.1.1|9=98|35=A|34=1|49=DBL|50=SID|52=20170822-16:05:06.249|56=BME|57=TID|98=0|108=30|141=Y|1137=4|1408=T4.0|10=108|
20170822-16:05:06.261 : 8=FIXT.1.1|9=98|35=A|49=BME|56=DBL|52=20170822-16:05:06.260|34=1|50=TID|57=SID|98=0|108=30|141=Y|1137=9|1408=T4.0|10=106|
20170822-16:05:29.602 : 8=FIXT.1.1|9=98|35=A|34=1|49=DBL|50=SID|52=20170822-16:05:29.594|56=BME|57=TID|98=0|108=30|141=Y|1137=4|1408=T4.0|10=116|
20170822-16:05:29.603 : 8=FIXT.1.1|9=98|35=A|49=BME|56=DBL|52=20170822-16:05:29.602|34=1|50=TID|57=SID|98=0|108=30|141=Y|1137=9|1408=T4.0|10=111|
20170822-16:05:31.437 : 8=FIXT.1.1|9=49|35=5|34=2|49=DBL|52=20170822-16:05:31.437|56=BME|10=215|
20170822-16:05:31.438 : 8=FIXT.1.1|9=63|35=5|49=BME|56=DBL|52=20170822-16:05:31.437|34=2|50=TID|57=SID|10=225|
20170822-16:05:34.866 : 8=FIXT.1.1|9=98|35=A|34=1|49=DBL|50=SID|52=20170822-16:05:34.856|56=BME|57=TID|98=0|108=30|141=Y|1137=4|1408=T4.0|10=113|
20170822-16:05:34.867 : 8=FIXT.1.1|9=98|35=A|49=BME|56=DBL|52=20170822-16:05:34.866|34=1|50=TID|57=SID|98=0|108=30|141=Y|1137=9|1408=T4.0|10=119|
20170822-16:05:47.361 : 8=FIXT.1.1|9=175|35=D|34=2|49=DBL|52=20170822-16:05:47.360|56=BME|1137=9|11=2017-08-22_e0a38b07-b23e-416a-8f82-da7ded8028e7|21=1|38=10|40=2|44=2|54=2|55=APPL|60=20170822-16:05:47|581=1|1030=I|10=143|
20170822-16:05:47.363 : 8=FIXT.1.1|9=210|35=8|49=BME|56=DBL|52=20170822-16:05:47.361|34=2|50=TID|57=SID|37=1|11=2017-08-22_e0a38b07-b23e-416a-8f82-da7ded8028e7|17=0|150=A|39=A|581=1|55=APPL|54=2|38=10|40=2|44=2|151=10|14=0|60=20170822-16:05:47|1030=I|10=043|
20170822-16:05:47.369 : 8=FIXT.1.1|9=175|35=D|34=3|49=DBL|52=20170822-16:05:47.369|56=BME|1137=9|11=2017-08-22_715c2335-fd10-40e8-b942-211ab94962ab|21=1|38=10|40=2|44=2|54=1|55=APPL|60=20170822-16:05:47|581=1|1030=I|10=201|
20170822-16:05:47.430 : 8=FIXT.1.1|9=210|35=8|49=BME|56=DBL|52=20170822-16:05:47.362|34=3|50=TID|57=SID|37=1|11=2017-08-22_e0a38b07-b23e-416a-8f82-da7ded8028e7|17=1|150=0|39=0|581=1|55=APPL|54=2|38=10|40=2|44=0|151=10|14=0|60=20170822-16:05:47|1030=I|10=010|
20170822-16:05:47.530 : 8=FIXT.1.1|9=210|35=8|49=BME|56=DBL|52=20170822-16:05:47.369|34=4|50=TID|57=SID|37=2|11=2017-08-22_715c2335-fd10-40e8-b942-211ab94962ab|17=2|150=A|39=A|581=1|55=APPL|54=1|38=10|40=2|44=2|151=10|14=0|60=20170822-16:05:47|1030=I|10=104|
20170822-16:05:47.614 : 8=FIXT.1.1|9=210|35=8|49=BME|56=DBL|52=20170822-16:05:47.371|34=5|50=TID|57=SID|37=2|11=2017-08-22_715c2335-fd10-40e8-b942-211ab94962ab|17=3|150=0|39=0|581=1|55=APPL|54=1|38=10|40=2|44=0|151=10|14=0|60=20170822-16:05:47|1030=I|10=063|
20170822-16:05:47.681 : 8=FIXT.1.1|9=210|35=8|49=BME|56=DBL|52=20170822-16:05:47.371|34=6|50=TID|57=SID|37=2|11=2017-08-22_715c2335-fd10-40e8-b942-211ab94962ab|17=4|150=F|39=2|581=1|55=APPL|54=1|38=10|40=2|44=2|151=0|14=10|60=20170822-16:05:47|1030=I|10=091|
20170822-16:05:47.734 : 8=FIXT.1.1|9=210|35=8|49=BME|56=DBL|52=20170822-16:05:47.371|34=7|50=TID|57=SID|37=1|11=2017-08-22_e0a38b07-b23e-416a-8f82-da7ded8028e7|17=5|150=F|39=2|581=1|55=APPL|54=2|38=10|40=2|44=2|151=0|14=10|60=20170822-16:05:47|1030=I|10=044|
20170822-16:06:16.927 : 8=FIXT.1.1|9=49|35=5|34=4|49=DBL|52=20170822-16:06:16.927|56=BME|10=225|
20170822-16:06:16.928 : 8=FIXT.1.1|9=63|35=5|49=BME|56=DBL|52=20170822-16:06:16.927|34=8|50=TID|57=SID|10=239|
20170823-08:21:13.267 : 8=FIXT.1.1|9=98|35=A|34=1|49=DBL|50=SID|52=20170823-08:21:13.259|56=BME|57=TID|98=0|108=30|141=Y|1137=4|1408=T4.0|10=107|
20170823-08:21:13.273 : 8=FIXT.1.1|9=98|35=A|49=BME|56=DBL|52=20170823-08:21:13.272|34=1|50=TID|57=SID|98=0|108=30|141=Y|1137=9|1408=T4.0|10=107|
20170823-08:21:43.046 : 8=FIXT.1.1|9=49|35=0|34=2|49=DBL|52=20170823-08:21:43.043|56=BME|10=206|
20170823-08:21:44.302 : 8=FIXT.1.1|9=63|35=0|49=BME|56=DBL|52=20170823-08:21:44.302|34=2|50=TID|57=SID|10=215|
20170823-08:22:13.132 : 8=FIXT.1.1|9=49|35=0|34=3|49=DBL|52=20170823-08:22:13.131|56=BME|10=203|
20170823-08:22:15.334 : 8=FIXT.1.1|9=63|35=0|49=BME|56=DBL|52=20170823-08:22:15.334|34=3|50=TID|57=SID|10=220|
20170823-08:22:35.712 : 8=FIXT.1.1|9=175|35=D|34=4|49=DBL|52=20170823-08:22:35.712|56=BME|1137=9|11=2017-08-23_ab0263b7-f6eb-43a3-978a-5e95cedabc3f|21=1|38=5|40=2|44=20|54=2|55=APPL|60=20170823-08:22:35|581=1|1030=I|10=035|
20170823-08:22:35.716 : 8=FIXT.1.1|9=209|35=8|49=BME|56=DBL|52=20170823-08:22:35.713|34=4|50=TID|57=SID|37=1|11=2017-08-23_ab0263b7-f6eb-43a3-978a-5e95cedabc3f|17=0|150=A|39=A|581=1|55=APPL|54=2|38=5|40=2|44=20|151=5|14=0|60=20170823-08:22:35|1030=I|10=155|
20170823-08:22:35.718 : 8=FIXT.1.1|9=175|35=D|34=5|49=DBL|52=20170823-08:22:35.718|56=BME|1137=9|11=2017-08-23_3d44e0d3-c9fe-444f-a2bd-02e237c3c6c9|21=1|38=5|40=2|44=20|54=1|55=APPL|60=20170823-08:22:35|581=1|1030=I|10=195|
20170823-08:22:35.879 : 8=FIXT.1.1|9=208|35=8|49=BME|56=DBL|52=20170823-08:22:35.716|34=5|50=TID|57=SID|37=1|11=2017-08-23_ab0263b7-f6eb-43a3-978a-5e95cedabc3f|17=1|150=0|39=0|581=1|55=APPL|54=2|38=5|40=2|44=0|151=5|14=0|60=20170823-08:22:35|1030=I|10=075|
20170823-08:22:35.941 : 8=FIXT.1.1|9=209|35=8|49=BME|56=DBL|52=20170823-08:22:35.718|34=6|50=TID|57=SID|37=2|11=2017-08-23_3d44e0d3-c9fe-444f-a2bd-02e237c3c6c9|17=2|150=A|39=A|581=1|55=APPL|54=1|38=5|40=2|44=20|151=5|14=0|60=20170823-08:22:35|1030=I|10=062|
20170823-08:22:36.047 : 8=FIXT.1.1|9=208|35=8|49=BME|56=DBL|52=20170823-08:22:35.719|34=7|50=TID|57=SID|37=2|11=2017-08-23_3d44e0d3-c9fe-444f-a2bd-02e237c3c6c9|17=3|150=0|39=0|581=1|55=APPL|54=1|38=5|40=2|44=0|151=5|14=0|60=20170823-08:22:35|1030=I|10=236|
20170823-08:22:36.122 : 8=FIXT.1.1|9=209|35=8|49=BME|56=DBL|52=20170823-08:22:35.719|34=8|50=TID|57=SID|37=2|11=2017-08-23_3d44e0d3-c9fe-444f-a2bd-02e237c3c6c9|17=4|150=F|39=2|581=1|55=APPL|54=1|38=5|40=2|44=20|151=0|14=5|60=20170823-08:22:35|1030=I|10=057|
20170823-08:22:36.205 : 8=FIXT.1.1|9=209|35=8|49=BME|56=DBL|52=20170823-08:22:35.719|34=9|50=TID|57=SID|37=1|11=2017-08-23_ab0263b7-f6eb-43a3-978a-5e95cedabc3f|17=5|150=F|39=2|581=1|55=APPL|54=2|38=5|40=2|44=20|151=0|14=5|60=20170823-08:22:35|1030=I|10=161|
20170823-08:23:05.028 : 8=FIXT.1.1|9=49|35=0|34=6|49=DBL|52=20170823-08:23:05.010|56=BME|10=204|
20170823-08:23:06.387 : 8=FIXT.1.1|9=64|35=0|49=BME|56=DBL|52=20170823-08:23:06.387|34=10|50=TID|57=SID|10=020|
20170823-08:23:17.451 : 8=FIXT.1.1|9=174|35=D|34=7|49=DBL|52=20170823-08:23:17.451|56=BME|1137=9|11=2017-08-23_e64c07d8-186a-4d70-b035-ed032ba0aa16|21=1|38=2|40=2|44=3|54=2|55=APPL|60=20170823-08:23:17|581=1|1030=I|10=028|
20170823-08:23:17.454 : 8=FIXT.1.1|9=209|35=8|49=BME|56=DBL|52=20170823-08:23:17.452|34=11|50=TID|57=SID|37=3|11=2017-08-23_e64c07d8-186a-4d70-b035-ed032ba0aa16|17=6|150=A|39=A|581=1|55=APPL|54=2|38=2|40=2|44=3|151=2|14=0|60=20170823-08:23:17|1030=I|10=197|
20170823-08:23:17.460 : 8=FIXT.1.1|9=174|35=D|34=8|49=DBL|52=20170823-08:23:17.460|56=BME|1137=9|11=2017-08-23_c231bd72-44fb-4847-9429-944166301a2c|21=1|38=2|40=2|44=3|54=1|55=APPL|60=20170823-08:23:17|581=1|1030=I|10=067|
20170823-08:23:17.560 : 8=FIXT.1.1|9=209|35=8|49=BME|56=DBL|52=20170823-08:23:17.452|34=12|50=TID|57=SID|37=3|11=2017-08-23_e64c07d8-186a-4d70-b035-ed032ba0aa16|17=7|150=0|39=0|581=1|55=APPL|54=2|38=2|40=2|44=0|151=2|14=0|60=20170823-08:23:17|1030=I|10=162|
20170823-08:23:17.672 : 8=FIXT.1.1|9=209|35=8|49=BME|56=DBL|52=20170823-08:23:17.460|34=13|50=TID|57=SID|37=4|11=2017-08-23_c231bd72-44fb-4847-9429-944166301a2c|17=8|150=A|39=A|581=1|55=APPL|54=1|38=2|40=2|44=3|151=2|14=0|60=20170823-08:23:17|1030=I|10=239|
20170823-08:23:17.802 : 8=FIXT.1.1|9=209|35=8|49=BME|56=DBL|52=20170823-08:23:17.462|34=14|50=TID|57=SID|37=4|11=2017-08-23_c231bd72-44fb-4847-9429-944166301a2c|17=9|150=0|39=0|581=1|55=APPL|54=1|38=2|40=2|44=0|151=2|14=0|60=20170823-08:23:17|1030=I|10=206|
20170823-08:23:17.864 : 8=FIXT.1.1|9=210|35=8|49=BME|56=DBL|52=20170823-08:23:17.465|34=15|50=TID|57=SID|37=4|11=2017-08-23_c231bd72-44fb-4847-9429-944166301a2c|17=10|150=F|39=2|581=1|55=APPL|54=1|38=2|40=2|44=3|151=0|14=2|60=20170823-08:23:17|1030=I|10=013|
20170823-08:23:18.005 : 8=FIXT.1.1|9=210|35=8|49=BME|56=DBL|52=20170823-08:23:17.465|34=16|50=TID|57=SID|37=3|11=2017-08-23_e64c07d8-186a-4d70-b035-ed032ba0aa16|17=11|150=F|39=2|581=1|55=APPL|54=2|38=2|40=2|44=3|151=0|14=2|60=20170823-08:23:17|1030=I|10=232|
20170823-08:23:47.116 : 8=FIXT.1.1|9=49|35=0|34=9|49=DBL|52=20170823-08:23:47.114|56=BME|10=218|
20170823-08:23:48.428 : 8=FIXT.1.1|9=64|35=0|49=BME|56=DBL|52=20170823-08:23:48.428|34=17|50=TID|57=SID|10=029|
20170823-08:24:17.327 : 8=FIXT.1.1|9=50|35=0|34=10|49=DBL|52=20170823-08:24:17.324|56=BME|10=251|
20170823-08:24:19.459 : 8=FIXT.1.1|9=64|35=0|49=BME|56=DBL|52=20170823-08:24:19.459|34=18|50=TID|57=SID|10=033|
20170823-08:24:47.178 : 8=FIXT.1.1|9=50|35=0|34=11|49=DBL|52=20170823-08:24:47.175|56=BME|10=003|
20170823-08:24:50.489 : 8=FIXT.1.1|9=64|35=0|49=BME|56=DBL|52=20170823-08:24:50.489|34=19|50=TID|57=SID|10=032|
20170823-08:25:14.372 : 8=FIXT.1.1|9=176|35=D|34=12|49=DBL|52=20170823-08:25:14.367|56=BME|1137=9|11=2017-08-23_0e9b8877-a378-4bfb-a0c8-b6af030b2f54|21=1|38=10|40=2|44=5|54=2|55=APPL|60=20170823-08:25:14|581=1|1030=I|10=199|
20170823-08:25:14.374 : 8=FIXT.1.1|9=212|35=8|49=BME|56=DBL|52=20170823-08:25:14.372|34=20|50=TID|57=SID|37=5|11=2017-08-23_0e9b8877-a378-4bfb-a0c8-b6af030b2f54|17=12|150=A|39=A|581=1|55=APPL|54=2|38=10|40=2|44=5|151=10|14=0|60=20170823-08:25:14|1030=I|10=149|
20170823-08:25:14.375 : 8=FIXT.1.1|9=176|35=D|34=13|49=DBL|52=20170823-08:25:14.375|56=BME|1137=9|11=2017-08-23_759629ba-46b2-4a44-b3b7-3b4eff8be359|21=1|38=10|40=2|44=5|54=1|55=APPL|60=20170823-08:25:14|581=1|1030=I|10=162|
20170823-08:25:14.427 : 8=FIXT.1.1|9=212|35=8|49=BME|56=DBL|52=20170823-08:25:14.373|34=21|50=TID|57=SID|37=5|11=2017-08-23_0e9b8877-a378-4bfb-a0c8-b6af030b2f54|17=13|150=0|39=0|581=1|55=APPL|54=2|38=10|40=2|44=0|151=10|14=0|60=20170823-08:25:14|1030=I|10=113|
20170823-08:25:14.521 : 8=FIXT.1.1|9=212|35=8|49=BME|56=DBL|52=20170823-08:25:14.376|34=22|50=TID|57=SID|37=6|11=2017-08-23_759629ba-46b2-4a44-b3b7-3b4eff8be359|17=14|150=A|39=A|581=1|55=APPL|54=1|38=10|40=2|44=5|151=10|14=0|60=20170823-08:25:14|1030=I|10=121|
20170823-08:25:14.581 : 8=FIXT.1.1|9=212|35=8|49=BME|56=DBL|52=20170823-08:25:14.377|34=23|50=TID|57=SID|37=6|11=2017-08-23_759629ba-46b2-4a44-b3b7-3b4eff8be359|17=15|150=0|39=0|581=1|55=APPL|54=1|38=10|40=2|44=0|151=10|14=0|60=20170823-08:25:14|1030=I|10=085|
20170823-08:25:14.662 : 8=FIXT.1.1|9=212|35=8|49=BME|56=DBL|52=20170823-08:25:14.377|34=24|50=TID|57=SID|37=6|11=2017-08-23_759629ba-46b2-4a44-b3b7-3b4eff8be359|17=16|150=F|39=2|581=1|55=APPL|54=1|38=10|40=2|44=5|151=0|14=10|60=20170823-08:25:14|1030=I|10=116|
20170823-08:25:14.702 : 8=FIXT.1.1|9=212|35=8|49=BME|56=DBL|52=20170823-08:25:14.377|34=25|50=TID|57=SID|37=5|11=2017-08-23_0e9b8877-a378-4bfb-a0c8-b6af030b2f54|17=17|150=F|39=2|581=1|55=APPL|54=2|38=10|40=2|44=5|151=0|14=10|60=20170823-08:25:14|1030=I|10=154|
20170823-08:25:44.141 : 8=FIXT.1.1|9=50|35=0|34=14|49=DBL|52=20170823-08:25:44.138|56=BME|10=003|
20170823-08:25:45.538 : 8=FIXT.1.1|9=64|35=0|49=BME|56=DBL|52=20170823-08:25:45.537|34=26|50=TID|57=SID|10=029|
20170823-08:26:14.089 : 8=FIXT.1.1|9=50|35=0|34=15|49=DBL|52=20170823-08:26:14.081|56=BME|10=255|
20170823-08:26:16.572 : 8=FIXT.1.1|9=64|35=0|49=BME|56=DBL|52=20170823-08:26:16.571|34=27|50=TID|57=SID|10=027|
20170823-08:26:44.879 : 8=FIXT.1.1|9=50|35=0|34=16|49=DBL|52=20170823-08:26:44.878|56=BME|10=017|
20170823-08:26:47.604 : 8=FIXT.1.1|9=64|35=0|49=BME|56=DBL|52=20170823-08:26:47.604|34=28|50=TID|57=SID|10=029|
20170823-08:27:08.937 : 8=FIXT.1.1|9=50|35=5|34=17|49=DBL|52=20170823-08:27:08.937|56=BME|10=020|
20170823-08:27:08.937 : 8=FIXT.1.1|9=64|35=5|49=BME|56=DBL|52=20170823-08:27:08.937|34=29|50=TID|57=SID|10=042|
20170823-08:29:56.086 : 8=FIXT.1.1|9=98|35=A|34=1|49=DBL|50=SID|52=20170823-08:29:56.076|56=BME|57=TID|98=0|108=30|141=Y|1137=4|1408=T4.0|10=119|
20170823-08:29:56.089 : 8=FIXT.1.1|9=98|35=A|49=BME|56=DBL|52=20170823-08:29:56.088|34=1|50=TID|57=SID|98=0|108=30|141=Y|1137=9|1408=T4.0|10=127|
20170823-08:30:26.146 : 8=FIXT.1.1|9=49|35=0|34=2|49=DBL|52=20170823-08:30:26.114|56=BME|10=206|
20170823-08:30:27.138 : 8=FIXT.1.1|9=63|35=0|49=BME|56=DBL|52=20170823-08:30:27.137|34=2|50=TID|57=SID|10=222|
20170823-08:30:33.254 : 8=FIXT.1.1|9=49|35=5|34=3|49=DBL|52=20170823-08:30:33.254|56=BME|10=215|
20170823-08:30:33.255 : 8=FIXT.1.1|9=63|35=5|49=BME|56=DBL|52=20170823-08:30:33.254|34=3|50=TID|57=SID|10=225|
20170823-08:35:12.409 : 8=FIXT.1.1|9=98|35=A|34=1|49=DBL|50=SID|52=20170823-08:35:12.399|56=BME|57=TID|98=0|108=30|141=Y|1137=4|1408=T4.0|10=116|
20170823-08:35:12.410 : 8=FIXT.1.1|9=98|35=A|49=BME|56=DBL|52=20170823-08:35:12.409|34=1|50=TID|57=SID|98=0|108=30|141=Y|1137=9|1408=T4.0|10=113|
20170823-08:35:18.866 : 8=FIXT.1.1|9=49|35=5|34=2|49=DBL|52=20170823-08:35:18.866|56=BME|10=231|
20170823-08:35:18.867 : 8=FIXT.1.1|9=63|35=5|49=BME|56=DBL|52=20170823-08:35:18.866|34=2|50=TID|57=SID|10=241|
20170823-08:35:23.240 : 8=FIXT.1.1|9=98|35=A|34=1|49=DBL|50=SID|52=20170823-08:35:23.234|56=BME|57=TID|98=0|108=30|141=Y|1137=4|1408=T4.0|10=106|
20170823-08:35:23.241 : 8=FIXT.1.1|9=98|35=A|49=BME|56=DBL|52=20170823-08:35:23.241|34=1|50=TID|57=SID|98=0|108=30|141=Y|1137=9|1408=T4.0|10=109|
20170823-08:35:42.142 : 8=FIXT.1.1|9=176|35=D|34=2|49=DBL|52=20170823-08:35:42.142|56=BME|1137=9|11=2017-08-23_7328d7cd-4795-4753-9505-0c9956eae225|21=1|38=34|40=2|44=25|54=2|55=APPL|60=20170823-08:35:42|581=1|1030=I|10=194|
20170823-08:35:42.144 : 8=FIXT.1.1|9=211|35=8|49=BME|56=DBL|52=20170823-08:35:42.143|34=2|50=TID|57=SID|37=1|11=2017-08-23_7328d7cd-4795-4753-9505-0c9956eae225|17=0|150=A|39=A|581=1|55=APPL|54=2|38=34|40=2|44=25|151=34|14=0|60=20170823-08:35:42|1030=I|10=100|
20170823-08:35:42.146 : 8=FIXT.1.1|9=176|35=D|34=3|49=DBL|52=20170823-08:35:42.146|56=BME|1137=9|11=2017-08-23_98183153-ddad-4e18-8a8b-559763f42f81|21=1|38=34|40=2|44=25|54=1|55=APPL|60=20170823-08:35:42|581=1|1030=I|10=035|
20170823-08:35:42.224 : 8=FIXT.1.1|9=210|35=8|49=BME|56=DBL|52=20170823-08:35:42.143|34=3|50=TID|57=SID|37=1|11=2017-08-23_7328d7cd-4795-4753-9505-0c9956eae225|17=1|150=0|39=0|581=1|55=APPL|54=2|38=34|40=2|44=0|151=34|14=0|60=20170823-08:35:42|1030=I|10=012|
20170823-08:35:42.273 : 8=FIXT.1.1|9=211|35=8|49=BME|56=DBL|52=20170823-08:35:42.146|34=4|50=TID|57=SID|37=2|11=2017-08-23_98183153-ddad-4e18-8a8b-559763f42f81|17=2|150=A|39=A|581=1|55=APPL|54=1|38=34|40=2|44=25|151=34|14=0|60=20170823-08:35:42|1030=I|10=200|
20170823-08:35:42.353 : 8=FIXT.1.1|9=210|35=8|49=BME|56=DBL|52=20170823-08:35:42.147|34=5|50=TID|57=SID|37=2|11=2017-08-23_98183153-ddad-4e18-8a8b-559763f42f81|17=3|150=0|39=0|581=1|55=APPL|54=1|38=34|40=2|44=0|151=34|14=0|60=20170823-08:35:42|1030=I|10=113|
20170823-08:35:42.489 : 8=FIXT.1.1|9=211|35=8|49=BME|56=DBL|52=20170823-08:35:42.147|34=6|50=TID|57=SID|37=2|11=2017-08-23_98183153-ddad-4e18-8a8b-559763f42f81|17=4|150=F|39=2|581=1|55=APPL|54=1|38=34|40=2|44=25|151=0|14=34|60=20170823-08:35:42|1030=I|10=195|
20170823-08:35:42.574 : 8=FIXT.1.1|9=211|35=8|49=BME|56=DBL|52=20170823-08:35:42.147|34=7|50=TID|57=SID|37=1|11=2017-08-23_7328d7cd-4795-4753-9505-0c9956eae225|17=5|150=F|39=2|581=1|55=APPL|54=2|38=34|40=2|44=25|151=0|14=34|60=20170823-08:35:42|1030=I|10=104|
20170823-08:36:12.030 : 8=FIXT.1.1|9=49|35=0|34=4|49=DBL|52=20170823-08:36:12.006|56=BME|10=209|
20170823-08:36:13.290 : 8=FIXT.1.1|9=63|35=0|49=BME|56=DBL|52=20170823-08:36:13.289|34=8|50=TID|57=SID|10=237|
20170823-08:36:42.069 : 8=FIXT.1.1|9=49|35=0|34=5|49=DBL|52=20170823-08:36:42.068|56=BME|10=221|
20170823-08:36:44.324 : 8=FIXT.1.1|9=63|35=0|49=BME|56=DBL|52=20170823-08:36:44.324|34=9|50=TID|57=SID|10=232|
20170823-08:37:12.076 : 8=FIXT.1.1|9=49|35=0|34=6|49=DBL|52=20170823-08:37:12.070|56=BME|10=213|
20170823-08:37:15.355 : 8=FIXT.1.1|9=64|35=0|49=BME|56=DBL|52=20170823-08:37:15.354|34=10|50=TID|57=SID|10=019|
20170823-08:37:42.076 : 8=FIXT.1.1|9=49|35=0|34=7|49=DBL|52=20170823-08:37:42.076|56=BME|10=223|
20170823-08:37:46.389 : 8=FIXT.1.1|9=64|35=0|49=BME|56=DBL|52=20170823-08:37:46.389|34=11|50=TID|57=SID|10=032|
20170823-08:38:12.172 : 8=FIXT.1.1|9=49|35=0|34=8|49=DBL|52=20170823-08:38:12.167|56=BME|10=223|
20170823-08:38:17.419 : 8=FIXT.1.1|9=64|35=0|49=BME|56=DBL|52=20170823-08:38:17.419|34=12|50=TID|57=SID|10=026|
20170823-08:38:42.076 : 8=FIXT.1.1|9=49|35=0|34=9|49=DBL|52=20170823-08:38:42.066|56=BME|10=225|
20170823-08:38:48.452 : 8=FIXT.1.1|9=64|35=0|49=BME|56=DBL|52=20170823-08:38:48.452|34=13|50=TID|57=SID|10=028|
20170823-08:39:12.618 : 8=FIXT.1.1|9=50|35=0|34=10|49=DBL|52=20170823-08:39:12.618|56=BME|10=002|
20170823-08:39:19.484 : 8=FIXT.1.1|9=64|35=0|49=BME|56=DBL|52=20170823-08:39:19.484|34=14|50=TID|57=SID|10=033|
20170823-08:39:54.458 : 8=FIXT.1.1|9=98|35=A|34=1|49=DBL|50=SID|52=20170823-08:39:54.443|56=BME|57=TID|98=0|108=30|141=Y|1137=4|1408=T4.0|10=116|
20170823-08:39:54.459 : 8=FIXT.1.1|9=98|35=A|49=BME|56=DBL|52=20170823-08:39:54.459|34=1|50=TID|57=SID|98=0|108=30|141=Y|1137=9|1408=T4.0|10=128|
20170823-08:40:24.605 : 8=FIXT.1.1|9=49|35=0|34=2|49=DBL|52=20170823-08:40:24.605|56=BME|10=210|
20170823-08:40:25.493 : 8=FIXT.1.1|9=63|35=0|49=BME|56=DBL|52=20170823-08:40:25.492|34=2|50=TID|57=SID|10=225|
20170823-08:40:46.741 : 8=FIXT.1.1|9=49|35=5|34=3|49=DBL|52=20170823-08:40:46.741|56=BME|10=221|
20170823-08:40:46.742 : 8=FIXT.1.1|9=63|35=5|49=BME|56=DBL|52=20170823-08:40:46.741|34=3|50=TID|57=SID|10=231|
20170823-08:48:02.883 : 8=FIXT.1.1|9=98|35=A|34=1|49=DBL|50=SID|52=20170823-08:48:02.879|56=BME|57=TID|98=0|108=30|141=Y|1137=4|1408=T4.0|10=122|
20170823-08:48:02.890 : 8=FIXT.1.1|9=98|35=A|49=BME|56=DBL|52=20170823-08:48:02.889|34=1|50=TID|57=SID|98=0|108=30|141=Y|1137=9|1408=T4.0|10=128|
20170823-08:48:17.361 : 8=FIXT.1.1|9=176|35=D|34=2|49=DBL|52=20170823-08:48:17.361|56=BME|1137=9|11=2017-08-23_43be9db5-1f7b-4db2-b4d2-ecb645ce1379|21=1|38=45|40=2|44=35|54=2|55=APPL|60=20170823-08:48:17|581=1|1030=I|10=058|
20170823-08:48:17.363 : 8=FIXT.1.1|9=211|35=8|49=BME|56=DBL|52=20170823-08:48:17.361|34=2|50=TID|57=SID|37=1|11=2017-08-23_43be9db5-1f7b-4db2-b4d2-ecb645ce1379|17=0|150=A|39=A|581=1|55=APPL|54=2|38=45|40=2|44=35|151=45|14=0|60=20170823-08:48:17|1030=I|10=221|
20170823-08:48:17.368 : 8=FIXT.1.1|9=176|35=D|34=3|49=DBL|52=20170823-08:48:17.367|56=BME|1137=9|11=2017-08-23_10ff29be-1549-450a-b876-134e7f843e01|21=1|38=45|40=2|44=35|54=1|55=APPL|60=20170823-08:48:17|581=1|1030=I|10=035|
20170823-08:48:17.523 : 8=FIXT.1.1|9=210|35=8|49=BME|56=DBL|52=20170823-08:48:17.362|34=3|50=TID|57=SID|37=1|11=2017-08-23_43be9db5-1f7b-4db2-b4d2-ecb645ce1379|17=1|150=0|39=0|581=1|55=APPL|54=2|38=45|40=2|44=0|151=45|14=0|60=20170823-08:48:17|1030=I|10=133|
20170823-08:48:17.628 : 8=FIXT.1.1|9=211|35=8|49=BME|56=DBL|52=20170823-08:48:17.368|34=4|50=TID|57=SID|37=2|11=2017-08-23_10ff29be-1549-450a-b876-134e7f843e01|17=2|150=A|39=A|581=1|55=APPL|54=1|38=45|40=2|44=35|151=45|14=0|60=20170823-08:48:17|1030=I|10=203|
20170823-08:48:17.684 : 8=FIXT.1.1|9=210|35=8|49=BME|56=DBL|52=20170823-08:48:17.369|34=5|50=TID|57=SID|37=2|11=2017-08-23_10ff29be-1549-450a-b876-134e7f843e01|17=3|150=0|39=0|581=1|55=APPL|54=1|38=45|40=2|44=0|151=45|14=0|60=20170823-08:48:17|1030=I|10=115|
20170823-08:48:17.759 : 8=FIXT.1.1|9=211|35=8|49=BME|56=DBL|52=20170823-08:48:17.369|34=6|50=TID|57=SID|37=2|11=2017-08-23_10ff29be-1549-450a-b876-134e7f843e01|17=4|150=F|39=2|581=1|55=APPL|54=1|38=45|40=2|44=35|151=0|14=45|60=20170823-08:48:17|1030=I|10=198|
20170823-08:48:17.807 : 8=FIXT.1.1|9=211|35=8|49=BME|56=DBL|52=20170823-08:48:17.369|34=7|50=TID|57=SID|37=1|11=2017-08-23_43be9db5-1f7b-4db2-b4d2-ecb645ce1379|17=5|150=F|39=2|581=1|55=APPL|54=2|38=45|40=2|44=35|151=0|14=45|60=20170823-08:48:17|1030=I|10=229|
20170823-08:48:26.105 : 8=FIXT.1.1|9=49|35=5|34=4|49=DBL|52=20170823-08:48:26.105|56=BME|10=222|
20170823-08:48:26.106 : 8=FIXT.1.1|9=63|35=5|49=BME|56=DBL|52=20170823-08:48:26.105|34=8|50=TID|57=SID|10=236|
20170823-08:49:06.396 : 8=FIXT.1.1|9=98|35=A|34=1|49=DBL|50=SID|52=20170823-08:49:06.387|56=BME|57=TID|98=0|108=30|141=Y|1137=4|1408=T4.0|10=121|
20170823-08:49:06.400 : 8=FIXT.1.1|9=98|35=A|49=BME|56=DBL|52=20170823-08:49:06.398|34=1|50=TID|57=SID|98=0|108=30|141=Y|1137=9|1408=T4.0|10=128|
20170823-08:49:18.464 : 8=FIXT.1.1|9=178|35=D|34=2|49=DBL|52=20170823-08:49:18.462|56=BME|1137=9|11=2017-08-23_dc5385db-2dfa-474b-969c-b6258a9a6ed1|21=1|38=100|40=2|44=100|54=2|55=TEST|60=20170823-08:49:18|581=1|1030=I|10=132|
20170823-08:49:18.465 : 8=FIXT.1.1|9=214|35=8|49=BME|56=DBL|52=20170823-08:49:18.464|34=2|50=TID|57=SID|37=1|11=2017-08-23_dc5385db-2dfa-474b-969c-b6258a9a6ed1|17=0|150=A|39=A|581=1|55=TEST|54=2|38=100|40=2|44=100|151=100|14=0|60=20170823-08:49:18|1030=I|10=082|
20170823-08:49:18.467 : 8=FIXT.1.1|9=178|35=D|34=3|49=DBL|52=20170823-08:49:18.467|56=BME|1137=9|11=2017-08-23_2e568a3f-c337-4218-b8a9-a6ad13b39c8c|21=1|38=100|40=2|44=100|54=1|55=TEST|60=20170823-08:49:18|581=1|1030=I|10=031|
20170823-08:49:18.543 : 8=FIXT.1.1|9=212|35=8|49=BME|56=DBL|52=20170823-08:49:18.465|34=3|50=TID|57=SID|37=1|11=2017-08-23_dc5385db-2dfa-474b-969c-b6258a9a6ed1|17=1|150=0|39=0|581=1|55=TEST|54=2|38=100|40=2|44=0|151=100|14=0|60=20170823-08:49:18|1030=I|10=208|
20170823-08:49:18.616 : 8=FIXT.1.1|9=214|35=8|49=BME|56=DBL|52=20170823-08:49:18.467|34=4|50=TID|57=SID|37=2|11=2017-08-23_2e568a3f-c337-4218-b8a9-a6ad13b39c8c|17=2|150=A|39=A|581=1|55=TEST|54=1|38=100|40=2|44=100|151=100|14=0|60=20170823-08:49:18|1030=I|10=239|
20170823-08:49:18.647 : 8=FIXT.1.1|9=212|35=8|49=BME|56=DBL|52=20170823-08:49:18.468|34=5|50=TID|57=SID|37=2|11=2017-08-23_2e568a3f-c337-4218-b8a9-a6ad13b39c8c|17=3|150=0|39=0|581=1|55=TEST|54=1|38=100|40=2|44=0|151=100|14=0|60=20170823-08:49:18|1030=I|10=109|
20170823-08:49:18.695 : 8=FIXT.1.1|9=214|35=8|49=BME|56=DBL|52=20170823-08:49:18.468|34=6|50=TID|57=SID|37=2|11=2017-08-23_2e568a3f-c337-4218-b8a9-a6ad13b39c8c|17=4|150=F|39=2|581=1|55=TEST|54=1|38=100|40=2|44=100|151=0|14=100|60=20170823-08:49:18|1030=I|10=234|
20170823-08:49:18.728 : 8=FIXT.1.1|9=214|35=8|49=BME|56=DBL|52=20170823-08:49:18.468|34=7|50=TID|57=SID|37=1|11=2017-08-23_dc5385db-2dfa-474b-969c-b6258a9a6ed1|17=5|150=F|39=2|581=1|55=TEST|54=2|38=100|40=2|44=100|151=0|14=100|60=20170823-08:49:18|1030=I|10=086|
20170823-08:49:31.927 : 8=FIXT.1.1|9=49|35=5|34=4|49=DBL|52=20170823-08:49:31.926|56=BME|10=230|
20170823-08:49:31.927 : 8=FIXT.1.1|9=63|35=5|49=BME|56=DBL|52=20170823-08:49:31.927|34=8|50=TID|57=SID|10=245|
20170823-08:55:43.546 : 8=FIXT.1.1|9=98|35=A|34=1|49=DBL|50=SID|52=20170823-08:55:43.536|56=BME|57=TID|98=0|108=30|141=Y|1137=4|1408=T4.0|10=115|
20170823-08:55:43.549 : 8=FIXT.1.1|9=98|35=A|49=BME|56=DBL|52=20170823-08:55:43.548|34=1|50=TID|57=SID|98=0|108=30|141=Y|1137=9|1408=T4.0|10=123|
20170823-08:55:53.913 : 8=FIXT.1.1|9=174|35=D|34=2|49=DBL|52=20170823-08:55:53.912|56=BME|1137=9|11=2017-08-23_f399ea7e-effd-48a8-9c2d-3324efe3cbb6|21=1|38=2|40=2|44=4|54=2|55=APPL|60=20170823-08:55:53|581=1|1030=I|10=065|
20170823-08:55:53.914 : 8=FIXT.1.1|9=208|35=8|49=BME|56=DBL|52=20170823-08:55:53.913|34=2|50=TID|57=SID|37=1|11=2017-08-23_f399ea7e-effd-48a8-9c2d-3324efe3cbb6|17=0|150=A|39=A|581=1|55=APPL|54=2|38=2|40=2|44=4|151=2|14=0|60=20170823-08:55:53|1030=I|10=182|
20170823-08:55:53.916 : 8=FIXT.1.1|9=174|35=D|34=3|49=DBL|52=20170823-08:55:53.916|56=BME|1137=9|11=2017-08-23_6a1d8782-6a38-4777-a4a1-0293b438af64|21=1|38=2|40=2|44=4|54=1|55=APPL|60=20170823-08:55:53|581=1|1030=I|10=135|
20170823-08:55:53.998 : 8=FIXT.1.1|9=208|35=8|49=BME|56=DBL|52=20170823-08:55:53.914|34=3|50=TID|57=SID|37=1|11=2017-08-23_f399ea7e-effd-48a8-9c2d-3324efe3cbb6|17=1|150=0|39=0|581=1|55=APPL|54=2|38=2|40=2|44=0|151=2|14=0|60=20170823-08:55:53|1030=I|10=147|
20170823-08:55:54.133 : 8=FIXT.1.1|9=208|35=8|49=BME|56=DBL|52=20170823-08:55:53.917|34=4|50=TID|57=SID|37=2|11=2017-08-23_6a1d8782-6a38-4777-a4a1-0293b438af64|17=2|150=A|39=A|581=1|55=APPL|54=1|38=2|40=2|44=4|151=2|14=0|60=20170823-08:55:53|1030=I|10=000|
20170823-08:55:54.195 : 8=FIXT.1.1|9=208|35=8|49=BME|56=DBL|52=20170823-08:55:53.918|34=5|50=TID|57=SID|37=2|11=2017-08-23_6a1d8782-6a38-4777-a4a1-0293b438af64|17=3|150=0|39=0|581=1|55=APPL|54=1|38=2|40=2|44=0|151=2|14=0|60=20170823-08:55:53|1030=I|10=221|
20170823-08:55:54.250 : 8=FIXT.1.1|9=208|35=8|49=BME|56=DBL|52=20170823-08:55:53.918|34=6|50=TID|57=SID|37=2|11=2017-08-23_6a1d8782-6a38-4777-a4a1-0293b438af64|17=4|150=F|39=2|581=1|55=APPL|54=1|38=2|40=2|44=4|151=0|14=2|60=20170823-08:55:53|1030=I|10=251|
20170823-08:55:54.316 : 8=FIXT.1.1|9=208|35=8|49=BME|56=DBL|52=20170823-08:55:53.918|34=7|50=TID|57=SID|37=1|11=2017-08-23_f399ea7e-effd-48a8-9c2d-3324efe3cbb6|17=5|150=F|39=2|581=1|55=APPL|54=2|38=2|40=2|44=4|151=0|14=2|60=20170823-08:55:53|1030=I|10=187|
20170823-08:56:23.118 : 8=FIXT.1.1|9=49|35=0|34=4|49=DBL|52=20170823-08:56:23.106|56=BME|10=214|
20170823-08:56:24.592 : 8=FIXT.1.1|9=63|35=0|49=BME|56=DBL|52=20170823-08:56:24.591|34=8|50=TID|57=SID|10=237|
20170823-08:57:25.317 : 8=FIXT.1.1|9=98|35=A|34=1|49=DBL|50=SID|52=20170823-08:57:25.303|56=BME|57=TID|98=0|108=30|141=Y|1137=4|1408=T4.0|10=109|
20170823-08:57:25.319 : 8=FIXT.1.1|9=98|35=A|49=BME|56=DBL|52=20170823-08:57:25.319|34=1|50=TID|57=SID|98=0|108=30|141=Y|1137=9|1408=T4.0|10=121|
20170823-08:57:40.278 : 8=FIXT.1.1|9=176|35=D|34=2|49=DBL|52=20170823-08:57:40.278|56=BME|1137=9|11=2017-08-23_83ccc2c4-61f8-44d1-8ee7-3c74a1f8d97b|21=1|38=10|40=2|44=10|54=2|55=SHOW|60=20170823-08:57:40|581=1|1030=I|10=238|
20170823-08:57:40.280 : 8=FIXT.1.1|9=211|35=8|49=BME|56=DBL|52=20170823-08:57:40.279|34=2|50=TID|57=SID|37=1|11=2017-08-23_83ccc2c4-61f8-44d1-8ee7-3c74a1f8d97b|17=0|150=A|39=A|581=1|55=SHOW|54=2|38=10|40=2|44=10|151=10|14=0|60=20170823-08:57:40|1030=I|10=138|
20170823-08:57:40.282 : 8=FIXT.1.1|9=176|35=D|34=3|49=DBL|52=20170823-08:57:40.282|56=BME|1137=9|11=2017-08-23_61d747eb-308f-4923-bc1f-a213a01a370c|21=1|38=10|40=2|44=10|54=1|55=SHOW|60=20170823-08:57:40|581=1|1030=I|10=100|
20170823-08:57:40.412 : 8=FIXT.1.1|9=210|35=8|49=BME|56=DBL|52=20170823-08:57:40.280|34=3|50=TID|57=SID|37=1|11=2017-08-23_83ccc2c4-61f8-44d1-8ee7-3c74a1f8d97b|17=1|150=0|39=0|581=1|55=SHOW|54=2|38=10|40=2|44=0|151=10|14=0|60=20170823-08:57:40|1030=I|10=048|
20170823-08:57:40.568 : 8=FIXT.1.1|9=211|35=8|49=BME|56=DBL|52=20170823-08:57:40.282|34=4|50=TID|57=SID|37=2|11=2017-08-23_61d747eb-308f-4923-bc1f-a213a01a370c|17=2|150=A|39=A|581=1|55=SHOW|54=1|38=10|40=2|44=10|151=10|14=0|60=20170823-08:57:40|1030=I|10=003|
20170823-08:57:40.761 : 8=FIXT.1.1|9=210|35=8|49=BME|56=DBL|52=20170823-08:57:40.283|34=5|50=TID|57=SID|37=2|11=2017-08-23_61d747eb-308f-4923-bc1f-a213a01a370c|17=3|150=0|39=0|581=1|55=SHOW|54=1|38=10|40=2|44=0|151=10|14=0|60=20170823-08:57:40|1030=I|10=178|
20170823-08:57:40.865 : 8=FIXT.1.1|9=211|35=8|49=BME|56=DBL|52=20170823-08:57:40.284|34=6|50=TID|57=SID|37=2|11=2017-08-23_61d747eb-308f-4923-bc1f-a213a01a370c|17=4|150=F|39=2|581=1|55=SHOW|54=1|38=10|40=2|44=10|151=0|14=10|60=20170823-08:57:40|1030=I|10=255|
20170823-08:57:40.927 : 8=FIXT.1.1|9=211|35=8|49=BME|56=DBL|52=20170823-08:57:40.284|34=7|50=TID|57=SID|37=1|11=2017-08-23_83ccc2c4-61f8-44d1-8ee7-3c74a1f8d97b|17=5|150=F|39=2|581=1|55=SHOW|54=2|38=10|40=2|44=10|151=0|14=10|60=20170823-08:57:40|1030=I|10=134|
20170823-08:58:03.221 : 8=FIXT.1.1|9=176|35=D|34=4|49=DBL|52=20170823-08:58:03.219|56=BME|1137=9|11=2017-08-23_213a5c33-2806-4dea-b56a-773a4d7d2e24|21=1|38=10|40=2|44=10|54=2|55=SHOW|60=20170823-08:58:03|581=1|1030=I|10=111|
20170823-08:58:03.223 : 8=FIXT.1.1|9=211|35=8|49=BME|56=DBL|52=20170823-08:58:03.221|34=8|50=TID|57=SID|37=3|11=2017-08-23_213a5c33-2806-4dea-b56a-773a4d7d2e24|17=6|150=A|39=A|581=1|55=SHOW|54=2|38=10|40=2|44=10|151=10|14=0|60=20170823-08:58:03|1030=I|10=015|
20170823-08:58:03.228 : 8=FIXT.1.1|9=176|35=D|34=5|49=DBL|52=20170823-08:58:03.228|56=BME|1137=9|11=2017-08-23_578b7ae5-05dc-4db8-b53a-3bc2d12a7523|21=1|38=10|40=2|44=10|54=1|55=SHOW|60=20170823-08:58:03|581=1|1030=I|10=208|
20170823-08:58:03.305 : 8=FIXT.1.1|9=210|35=8|49=BME|56=DBL|52=20170823-08:58:03.222|34=9|50=TID|57=SID|37=3|11=2017-08-23_213a5c33-2806-4dea-b56a-773a4d7d2e24|17=7|150=0|39=0|581=1|55=SHOW|54=2|38=10|40=2|44=0|151=10|14=0|60=20170823-08:58:03|1030=I|10=190|
20170823-08:58:03.328 : 8=FIXT.1.1|9=212|35=8|49=BME|56=DBL|52=20170823-08:58:03.229|34=10|50=TID|57=SID|37=4|11=2017-08-23_578b7ae5-05dc-4db8-b53a-3bc2d12a7523|17=8|150=A|39=A|581=1|55=SHOW|54=1|38=10|40=2|44=10|151=10|14=0|60=20170823-08:58:03|1030=I|10=164|
20170823-08:58:03.352 : 8=FIXT.1.1|9=211|35=8|49=BME|56=DBL|52=20170823-08:58:03.230|34=11|50=TID|57=SID|37=4|11=2017-08-23_578b7ae5-05dc-4db8-b53a-3bc2d12a7523|17=9|150=0|39=0|581=1|55=SHOW|54=1|38=10|40=2|44=0|151=10|14=0|60=20170823-08:58:03|1030=I|10=074|
20170823-08:58:03.387 : 8=FIXT.1.1|9=213|35=8|49=BME|56=DBL|52=20170823-08:58:03.230|34=12|50=TID|57=SID|37=4|11=2017-08-23_578b7ae5-05dc-4db8-b53a-3bc2d12a7523|17=10|150=F|39=2|581=1|55=SHOW|54=1|38=10|40=2|44=10|151=0|14=10|60=20170823-08:58:03|1030=I|10=190|
20170823-08:58:03.482 : 8=FIXT.1.1|9=213|35=8|49=BME|56=DBL|52=20170823-08:58:03.230|34=13|50=TID|57=SID|37=3|11=2017-08-23_213a5c33-2806-4dea-b56a-773a4d7d2e24|17=11|150=F|39=2|581=1|55=SHOW|54=2|38=10|40=2|44=10|151=0|14=10|60=20170823-08:58:03|1030=I|10=095|
20170823-08:58:10.445 : 8=FIXT.1.1|9=49|35=5|34=6|49=DBL|52=20170823-08:58:10.445|56=BME|10=225|
20170823-08:58:10.445 : 8=FIXT.1.1|9=64|35=5|49=BME|56=DBL|52=20170823-08:58:10.445|34=14|50=TID|57=SID|10=027|
20170823-09:01:05.595 : 8=FIXT.1.1|9=98|35=A|34=1|49=DBL|50=SID|52=20170823-09:01:05.585|56=BME|57=TID|98=0|108=30|141=Y|1137=4|1408=T4.0|10=109|
20170823-09:01:05.597 : 8=FIXT.1.1|9=98|35=A|49=BME|56=DBL|52=20170823-09:01:05.597|34=1|50=TID|57=SID|98=0|108=30|141=Y|1137=9|1408=T4.0|10=117|
20170823-09:03:00.533 : 8=FIXT.1.1|9=98|35=A|34=1|49=DBL|50=SID|52=20170823-09:03:00.531|56=BME|57=TID|98=0|108=30|141=Y|1137=4|1408=T4.0|10=097|
20170823-09:03:00.546 : 8=FIXT.1.1|9=98|35=A|49=BME|56=DBL|52=20170823-09:03:00.535|34=1|50=TID|57=SID|98=0|108=30|141=Y|1137=9|1408=T4.0|10=106|
20170823-09:06:00.358 : 8=FIXT.1.1|9=98|35=A|34=1|49=DBL|50=SID|52=20170823-09:06:00.343|56=BME|57=TID|98=0|108=30|141=Y|1137=4|1408=T4.0|10=101|
20170823-09:06:00.360 : 8=FIXT.1.1|9=98|35=A|49=BME|56=DBL|52=20170823-09:06:00.360|34=1|50=TID|57=SID|98=0|108=30|141=Y|1137=9|1408=T4.0|10=105|
20170823-09:06:14.634 : 8=FIXT.1.1|9=175|35=D|34=2|49=DBL|52=20170823-09:06:14.634|56=BME|1137=9|11=2017-08-23_62263a26-2283-4908-afdb-1872bf769a89|21=1|38=10|40=2|44=6|54=2|55=CSCO|60=20170823-09:06:14|581=1|1030=I|10=173|
20170823-09:06:14.636 : 8=FIXT.1.1|9=210|35=8|49=BME|56=DBL|52=20170823-09:06:14.634|34=2|50=TID|57=SID|37=1|11=2017-08-23_62263a26-2283-4908-afdb-1872bf769a89|17=0|150=A|39=A|581=1|55=CSCO|54=2|38=10|40=2|44=6|151=10|14=0|60=20170823-09:06:14|1030=I|10=072|
20170823-09:06:14.637 : 8=FIXT.1.1|9=175|35=D|34=3|49=DBL|52=20170823-09:06:14.637|56=BME|1137=9|11=2017-08-23_12188421-4c53-4caa-9955-c18f1f9d2f18|21=1|38=10|40=2|44=6|54=1|55=CSCO|60=20170823-09:06:14|581=1|1030=I|10=215|
20170823-09:06:14.724 : 8=FIXT.1.1|9=210|35=8|49=BME|56=DBL|52=20170823-09:06:14.635|34=3|50=TID|57=SID|37=1|11=2017-08-23_62263a26-2283-4908-afdb-1872bf769a89|17=1|150=0|39=0|581=1|55=CSCO|54=2|38=10|40=2|44=0|151=10|14=0|60=20170823-09:06:14|1030=I|10=035|
20170823-09:06:14.772 : 8=FIXT.1.1|9=210|35=8|49=BME|56=DBL|52=20170823-09:06:14.638|34=4|50=TID|57=SID|37=2|11=2017-08-23_12188421-4c53-4caa-9955-c18f1f9d2f18|17=2|150=A|39=A|581=1|55=CSCO|54=1|38=10|40=2|44=6|151=10|14=0|60=20170823-09:06:14|1030=I|10=119|
20170823-09:06:14.860 : 8=FIXT.1.1|9=210|35=8|49=BME|56=DBL|52=20170823-09:06:14.639|34=5|50=TID|57=SID|37=2|11=2017-08-23_12188421-4c53-4caa-9955-c18f1f9d2f18|17=3|150=0|39=0|581=1|55=CSCO|54=1|38=10|40=2|44=0|151=10|14=0|60=20170823-09:06:14|1030=I|10=082|
20170823-09:06:14.940 : 8=FIXT.1.1|9=210|35=8|49=BME|56=DBL|52=20170823-09:06:14.639|34=6|50=TID|57=SID|37=2|11=2017-08-23_12188421-4c53-4caa-9955-c18f1f9d2f18|17=4|150=F|39=2|581=1|55=CSCO|54=1|38=10|40=2|44=6|151=0|14=10|60=20170823-09:06:14|1030=I|10=114|
20170823-09:06:14.970 : 8=FIXT.1.1|9=210|35=8|49=BME|56=DBL|52=20170823-09:06:14.639|34=7|50=TID|57=SID|37=1|11=2017-08-23_62263a26-2283-4908-afdb-1872bf769a89|17=5|150=F|39=2|581=1|55=CSCO|54=2|38=10|40=2|44=6|151=0|14=10|60=20170823-09:06:14|1030=I|10=077|
20170823-09:06:25.187 : 8=FIXT.1.1|9=49|35=5|34=4|49=DBL|52=20170823-09:06:25.187|56=BME|10=226|
20170823-09:06:25.188 : 8=FIXT.1.1|9=63|35=5|49=BME|56=DBL|52=20170823-09:06:25.187|34=8|50=TID|57=SID|10=240|
20170823-09:08:26.051 : 8=FIXT.1.1|9=98|35=A|34=1|49=DBL|50=SID|52=20170823-09:08:26.045|56=BME|57=TID|98=0|108=30|141=Y|1137=4|1408=T4.0|10=110|
20170823-09:08:26.053 : 8=FIXT.1.1|9=98|35=A|49=BME|56=DBL|52=20170823-09:08:26.053|34=1|50=TID|57=SID|98=0|108=30|141=Y|1137=9|1408=T4.0|10=114|
20170823-09:08:54.954 : 8=FIXT.1.1|9=49|35=5|34=2|49=DBL|52=20170823-09:08:54.954|56=BME|10=230|
20170823-09:08:54.956 : 8=FIXT.1.1|9=63|35=5|49=BME|56=DBL|52=20170823-09:08:54.955|34=2|50=TID|57=SID|10=241|
20170823-09:13:54.468 : 8=FIXT.1.1|9=98|35=A|34=1|49=DBL|50=SID|52=20170823-09:13:54.459|56=BME|57=TID|98=0|108=30|141=Y|1137=4|1408=T4.0|10=116|
20170823-09:13:54.470 : 8=FIXT.1.1|9=98|35=A|49=BME|56=DBL|52=20170823-09:13:54.470|34=1|50=TID|57=SID|98=0|108=30|141=Y|1137=9|1408=T4.0|10=114|
20170823-09:13:57.620 : 8=FIXT.1.1|9=49|35=5|34=2|49=DBL|52=20170823-09:13:57.620|56=BME|10=219|
20170823-09:13:57.620 : 8=FIXT.1.1|9=63|35=5|49=BME|56=DBL|52=20170823-09:13:57.620|34=2|50=TID|57=SID|10=229|
20170823-09:15:46.752 : 8=FIXT.1.1|9=98|35=A|34=1|49=DBL|50=SID|52=20170823-09:15:46.749|56=BME|57=TID|98=0|108=30|141=Y|1137=4|1408=T4.0|10=121|
20170823-09:15:46.756 : 8=FIXT.1.1|9=98|35=A|49=BME|56=DBL|52=20170823-09:15:46.756|34=1|50=TID|57=SID|98=0|108=30|141=Y|1137=9|1408=T4.0|10=124|
20170823-09:16:09.949 : 8=FIXT.1.1|9=49|35=5|34=2|49=DBL|52=20170823-09:16:09.949|56=BME|10=233|
20170823-09:16:09.950 : 8=FIXT.1.1|9=63|35=5|49=BME|56=DBL|52=20170823-09:16:09.950|34=2|50=TID|57=SID|10=235|
20170823-09:23:42.939 : 8=FIXT.1.1|9=98|35=A|34=1|49=DBL|50=SID|52=20170823-09:23:42.936|56=BME|57=TID|98=0|108=30|141=Y|1137=4|1408=T4.0|10=114|
20170823-09:23:42.939 : 8=FIXT.1.1|9=98|35=A|49=BME|56=DBL|52=20170823-09:23:42.939|34=1|50=TID|57=SID|98=0|108=30|141=Y|1137=9|1408=T4.0|10=122|
20170823-09:23:46.106 : 8=FIXT.1.1|9=49|35=5|34=2|49=DBL|52=20170823-09:23:46.106|56=BME|10=217|
20170823-09:23:46.107 : 8=FIXT.1.1|9=63|35=5|49=BME|56=DBL|52=20170823-09:23:46.106|34=2|50=TID|57=SID|10=227|
20170823-10:18:48.564 : 8=FIXT.1.1|9=98|35=A|34=1|49=DBL|50=SID|52=20170823-10:18:48.564|56=BME|57=TID|98=0|108=30|141=Y|1137=4|1408=T4.0|10=113|
20170823-10:18:48.566 : 8=FIXT.1.1|9=98|35=A|49=BME|56=DBL|52=20170823-10:18:48.566|34=1|50=TID|57=SID|98=0|108=30|141=Y|1137=9|1408=T4.0|10=120|
20170823-10:18:57.467 : 8=FIXT.1.1|9=49|35=5|34=2|49=DBL|52=20170823-10:18:57.466|56=BME|10=224|
20170823-10:18:57.467 : 8=FIXT.1.1|9=63|35=5|49=BME|56=DBL|52=20170823-10:18:57.467|34=2|50=TID|57=SID|10=235|
20170823-12:22:23.923 : 8=FIXT.1.1|9=98|35=A|34=1|49=DBL|50=SID|52=20170823-12:22:23.922|56=BME|57=TID|98=0|108=30|141=Y|1137=4|1408=T4.0|10=101|
20170823-12:22:23.942 : 8=FIXT.1.1|9=98|35=A|49=BME|56=DBL|52=20170823-12:22:23.923|34=1|50=TID|57=SID|98=0|108=30|141=Y|1137=9|1408=T4.0|10=107|
20170823-12:22:26.224 : 8=FIXT.1.1|9=174|35=D|34=2|49=DBL|52=20170823-12:22:26.224|56=BME|1137=9|11=2017-08-23_fbd89c0e-c3dc-407a-aee4-096909810f54|21=1|38=2|40=2|44=2|54=2|55=ewew|60=20170823-12:22:26|581=1|1030=I|10=225|
20170823-12:22:26.225 : 8=FIXT.1.1|9=92|35=3|49=BME|56=DBL|52=20170823-12:22:26.224|34=2|50=TID|57=SID|45=2|373=5|58=unknown symbol|10=053|
20170823-12:22:26.235 : 8=FIXT.1.1|9=174|35=D|34=3|49=DBL|52=20170823-12:22:26.235|56=BME|1137=9|11=2017-08-23_2de81af8-7de6-4835-bba4-7fedf6fa5239|21=1|38=2|40=2|44=2|54=1|55=ewew|60=20170823-12:22:26|581=1|1030=I|10=079|
20170823-12:22:26.595 : 8=FIXT.1.1|9=92|35=3|49=BME|56=DBL|52=20170823-12:22:26.235|34=3|50=TID|57=SID|45=3|373=5|58=unknown symbol|10=057|
20170823-12:22:38.040 : 8=FIXT.1.1|9=49|35=5|34=4|49=DBL|52=20170823-12:22:38.040|56=BME|10=210|
20170823-12:22:38.041 : 8=FIXT.1.1|9=63|35=5|49=BME|56=DBL|52=20170823-12:22:38.041|34=4|50=TID|57=SID|10=221|
20170823-13:40:09.837 : 8=FIXT.1.1|9=98|35=A|34=1|49=DBL|50=SID|52=20170823-13:40:09.836|56=BME|57=TID|98=0|108=30|141=Y|1137=4|1408=T4.0|10=110|
20170823-13:40:09.838 : 8=FIXT.1.1|9=98|35=A|49=BME|56=DBL|52=20170823-13:40:09.838|34=1|50=TID|57=SID|98=0|108=30|141=Y|1137=9|1408=T4.0|10=117|
20170823-13:40:25.894 : 8=FIXT.1.1|9=174|35=D|34=2|49=DBL|52=20170823-13:40:25.893|56=BME|1137=9|11=2017-08-23_01aa98a2-b00e-4945-9b6d-b8510b24930e|21=1|38=3|40=2|44=3|54=2|55=APPL|60=20170823-13:40:25|581=1|1030=I|10=192|
20170823-13:40:25.898 : 8=FIXT.1.1|9=208|35=8|49=BME|56=DBL|52=20170823-13:40:25.897|34=2|50=TID|57=SID|37=1|11=2017-08-23_01aa98a2-b00e-4945-9b6d-b8510b24930e|17=0|150=A|39=A|581=1|55=APPL|54=2|38=3|40=2|44=3|151=3|14=0|60=20170823-13:40:25|1030=I|10=057|
20170823-13:40:25.900 : 8=FIXT.1.1|9=174|35=D|34=3|49=DBL|52=20170823-13:40:25.900|56=BME|1137=9|11=2017-08-23_9af0ac0f-ac32-4b6d-9295-597070d3d3df|21=1|38=3|40=2|44=3|54=1|55=APPL|60=20170823-13:40:25|581=1|1030=I|10=083|
20170823-13:40:25.951 : 8=FIXT.1.1|9=208|35=8|49=BME|56=DBL|52=20170823-13:40:25.898|34=3|50=TID|57=SID|37=1|11=2017-08-23_01aa98a2-b00e-4945-9b6d-b8510b24930e|17=1|150=0|39=0|581=1|55=APPL|54=2|38=3|40=2|44=0|151=3|14=0|60=20170823-13:40:25|1030=I|10=023|
20170823-13:40:26.032 : 8=FIXT.1.1|9=208|35=8|49=BME|56=DBL|52=20170823-13:40:25.901|34=4|50=TID|57=SID|37=2|11=2017-08-23_9af0ac0f-ac32-4b6d-9295-597070d3d3df|17=2|150=A|39=A|581=1|55=APPL|54=1|38=3|40=2|44=3|151=3|14=0|60=20170823-13:40:25|1030=I|10=205|
20170823-13:40:26.078 : 8=FIXT.1.1|9=208|35=8|49=BME|56=DBL|52=20170823-13:40:25.901|34=5|50=TID|57=SID|37=2|11=2017-08-23_9af0ac0f-ac32-4b6d-9295-597070d3d3df|17=3|150=0|39=0|581=1|55=APPL|54=1|38=3|40=2|44=0|151=3|14=0|60=20170823-13:40:25|1030=I|10=170|
20170823-13:40:26.116 : 8=FIXT.1.1|9=208|35=8|49=BME|56=DBL|52=20170823-13:40:25.902|34=6|50=TID|57=SID|37=2|11=2017-08-23_9af0ac0f-ac32-4b6d-9295-597070d3d3df|17=4|150=F|39=2|581=1|55=APPL|54=1|38=3|40=2|44=3|151=0|14=3|60=20170823-13:40:25|1030=I|10=200|
20170823-13:40:26.157 : 8=FIXT.1.1|9=208|35=8|49=BME|56=DBL|52=20170823-13:40:25.902|34=7|50=TID|57=SID|37=1|11=2017-08-23_01aa98a2-b00e-4945-9b6d-b8510b24930e|17=5|150=F|39=2|581=1|55=APPL|54=2|38=3|40=2|44=3|151=0|14=3|60=20170823-13:40:25|1030=I|10=044|
20170823-13:40:41.328 : 8=FIXT.1.1|9=49|35=5|34=4|49=DBL|52=20170823-13:40:41.328|56=BME|10=214|
20170823-13:40:41.328 : 8=FIXT.1.1|9=63|35=5|49=BME|56=DBL|52=20170823-13:40:41.328|34=8|50=TID|57=SID|10=228|
20170823-13:42:02.654 : 8=FIXT.1.1|9=98|35=A|34=1|49=DBL|50=SID|52=20170823-13:42:02.652|56=BME|57=TID|98=0|108=30|141=Y|1137=4|1408=T4.0|10=101|
20170823-13:42:02.656 : 8=FIXT.1.1|9=98|35=A|49=BME|56=DBL|52=20170823-13:42:02.656|34=1|50=TID|57=SID|98=0|108=30|141=Y|1137=9|1408=T4.0|10=110|
20170823-13:42:19.357 : 8=FIXT.1.1|9=174|35=D|34=2|49=DBL|52=20170823-13:42:19.356|56=BME|1137=9|11=2017-08-23_ad9871c2-f223-4d18-afeb-9fac2e8b8c33|21=1|38=2|40=2|44=4|54=2|55=CSCO|60=20170823-13:42:19|581=1|1030=I|10=193|
20170823-13:42:19.359 : 8=FIXT.1.1|9=208|35=8|49=BME|56=DBL|52=20170823-13:42:19.357|34=2|50=TID|57=SID|37=1|11=2017-08-23_ad9871c2-f223-4d18-afeb-9fac2e8b8c33|17=0|150=A|39=A|581=1|55=CSCO|54=2|38=2|40=2|44=4|151=2|14=0|60=20170823-13:42:19|1030=I|10=054|
20170823-13:42:19.362 : 8=FIXT.1.1|9=174|35=D|34=3|49=DBL|52=20170823-13:42:19.362|56=BME|1137=9|11=2017-08-23_bbc8c037-05b2-4b82-adda-9c9db9a71370|21=1|38=2|40=2|44=4|54=1|55=CSCO|60=20170823-13:42:19|581=1|1030=I|10=128|
20170823-13:42:19.423 : 8=FIXT.1.1|9=208|35=8|49=BME|56=DBL|52=20170823-13:42:19.359|34=3|50=TID|57=SID|37=1|11=2017-08-23_ad9871c2-f223-4d18-afeb-9fac2e8b8c33|17=1|150=0|39=0|581=1|55=CSCO|54=2|38=2|40=2|44=0|151=2|14=0|60=20170823-13:42:19|1030=I|10=020|
20170823-13:42:19.481 : 8=FIXT.1.1|9=208|35=8|49=BME|56=DBL|52=20170823-13:42:19.362|34=4|50=TID|57=SID|37=2|11=2017-08-23_bbc8c037-05b2-4b82-adda-9c9db9a71370|17=2|150=A|39=A|581=1|55=CSCO|54=1|38=2|40=2|44=4|151=2|14=0|60=20170823-13:42:19|1030=I|10=248|
20170823-13:42:19.572 : 8=FIXT.1.1|9=208|35=8|49=BME|56=DBL|52=20170823-13:42:19.363|34=5|50=TID|57=SID|37=2|11=2017-08-23_bbc8c037-05b2-4b82-adda-9c9db9a71370|17=3|150=0|39=0|581=1|55=CSCO|54=1|38=2|40=2|44=0|151=2|14=0|60=20170823-13:42:19|1030=I|10=213|
20170823-13:42:19.693 : 8=FIXT.1.1|9=208|35=8|49=BME|56=DBL|52=20170823-13:42:19.363|34=6|50=TID|57=SID|37=2|11=2017-08-23_bbc8c037-05b2-4b82-adda-9c9db9a71370|17=4|150=F|39=2|581=1|55=CSCO|54=1|38=2|40=2|44=4|151=0|14=2|60=20170823-13:42:19|1030=I|10=243|
20170823-13:42:19.776 : 8=FIXT.1.1|9=208|35=8|49=BME|56=DBL|52=20170823-13:42:19.363|34=7|50=TID|57=SID|37=1|11=2017-08-23_ad9871c2-f223-4d18-afeb-9fac2e8b8c33|17=5|150=F|39=2|581=1|55=CSCO|54=2|38=2|40=2|44=4|151=0|14=2|60=20170823-13:42:19|1030=I|10=051|
