20170822-08:56:23.555 : 8=FIXT.1.1|9=98|35=A|34=1|49=DBL|50=SID|52=20170822-08:56:23.552|56=BME|57=TID|98=0|108=30|141=Y|1137=4|1408=T4.0|10=111|
20170822-08:56:23.557 : 8=FIXT.1.1|9=98|35=A|49=BME|56=DBL|52=20170822-08:56:23.556|34=1|50=TID|57=SID|98=0|108=30|141=Y|1137=9|1408=T4.0|10=120|
20170822-08:56:53.113 : 8=FIXT.1.1|9=49|35=0|34=2|49=DBL|52=20170822-08:56:53.109|56=BME|10=217|
20170822-08:56:54.584 : 8=FIXT.1.1|9=63|35=0|49=BME|56=DBL|52=20170822-08:56:54.584|34=2|50=TID|57=SID|10=235|
20170822-08:57:23.332 : 8=FIXT.1.1|9=49|35=0|34=3|49=DBL|52=20170822-08:57:23.331|56=BME|10=213|
20170822-08:57:25.615 : 8=FIXT.1.1|9=63|35=0|49=BME|56=DBL|52=20170822-08:57:25.615|34=3|50=TID|57=SID|10=230|
20170822-08:57:53.356 : 8=FIXT.1.1|9=49|35=0|34=4|49=DBL|52=20170822-08:57:53.352|56=BME|10=220|
20170822-08:57:56.647 : 8=FIXT.1.1|9=63|35=0|49=BME|56=DBL|52=20170822-08:57:56.646|34=4|50=TID|57=SID|10=239|
20170822-08:58:23.516 : 8=FIXT.1.1|9=49|35=0|34=5|49=DBL|52=20170822-08:58:23.515|56=BME|10=220|
20170822-08:58:27.674 : 8=FIXT.1.1|9=63|35=0|49=BME|56=DBL|52=20170822-08:58:27.674|34=5|50=TID|57=SID|10=240|
20170822-08:58:53.140 : 8=FIXT.1.1|9=49|35=0|34=6|49=DBL|52=20170822-08:58:53.137|56=BME|10=224|
20170822-08:58:58.705 : 8=FIXT.1.1|9=63|35=0|49=BME|56=DBL|52=20170822-08:58:58.705|34=6|50=TID|57=SID|10=240|
20170822-08:59:23.460 : 8=FIXT.1.1|9=49|35=0|34=7|49=DBL|52=20170822-08:59:23.460|56=BME|10=222|
20170822-08:59:29.735 : 8=FIXT.1.1|9=63|35=0|49=BME|56=DBL|52=20170822-08:59:29.735|34=7|50=TID|57=SID|10=243|
20170822-09:34:49.335 : 8=FIXT.1.1|9=98|35=A|34=1|49=DBL|50=SID|52=20170822-09:34:49.333|56=BME|57=TID|98=0|108=30|141=Y|1137=4|1408=T4.0|10=113|
20170822-09:34:49.338 : 8=FIXT.1.1|9=98|35=A|49=BME|56=DBL|52=20170822-09:34:49.338|34=1|50=TID|57=SID|98=0|108=30|141=Y|1137=9|1408=T4.0|10=123|
20170822-09:35:17.134 : 8=FIXT.1.1|9=49|35=5|34=2|49=DBL|52=20170822-09:35:17.134|56=BME|10=218|