8=FIX.4.2|9=155|35=D|49=FIX2|56=LLVE_1|52=20171017-07:15:51.645|34=32|40=2|54=5|55=VOLVb.ST|11=DV_15156|21=3|60=20171017-07:15:51|38=20|44=166.0|59=0|15=SEK|100=ST|207=ST|10=129|
8=FIX.4.2|9=218|35=8|49=LLVE_1|56=FIX2|11=DV_15156|207=ST|37=456|17=DBL0F1-6|10000=OBVK66|20=0|150=0|39=0|55=VOLVb.ST|54=5|38=20|40=2|44=166.0|59=0|15=SEK|31=0|32=0|6=0.000000|14=0|60=20171017-07:15:51.705|527=DBL0F1-6|151=20|775=AAA|10=083|
8=FIX.4.2|9=160|35=G|49=FIX2|56=LLVE_1|52=20171017-07:16:01.207|34=33|11=DV_15157|21=3|55=VOLVb.ST|54=5|40=2|41=DV_15156|38=30|44=166.0|59=0|60=20171017-07:16:01|15=SEK|100=ST|10=149|
8=FIX.4.2|9=197|35=8|49=LLVE_1|56=FIX2|11=DV_15157|37=456|41=DV_15156|17=A117M000000000b|20=0|150=E|39=E|55=VOLVb.ST|54=5|38=20|40=2|44=166.0|15=SEK|21=3|59=0|151=20|6=0.000000|14=0|31=0|32=0|60=20171017-07:16:01|10=222|
8=FIX.4.2|9=230|35=8|49=LLVE_1|56=FIX2|11=DV_15157|207=ST|41=DV_15156|37=456|17=DBL0F1-7|10000=OBVK67|20=0|150=5|39=5|55=VOLVb.ST|54=5|38=30|40=2|44=166.0|59=0|15=SEK|31=0|32=0|6=0.000000|14=0|60=20171017-07:16:01.269|527=DBL0F1-7|151=30|775=AAA|10=252|
